:020000040800F2
:10000000002000206D08000851090008530900086D
:1000100000000000000000000000000000000000E0
:10002000000000000000000000000000550900086A
:1000300000000000000000005709000859090008EE
:10004000BD080008BD080008BD080008BD0800087C
:10005000BD080008BD080008BD080008BD0800086C
:10006000BD080008C90A0008BD080008BD0800084E
:10007000BD080008BD080008BD080008BD0800084C
:10008000050D0008BD08000800000000BD080008BC
:10009000BD080008BD080008BD080008BD0800082C
:1000A000BD080008BD080008BD080008BD0800081C
:1000B000BD08000800000000BD08000800000000A6
:1000C00010B5064C2378002B07D1054B002B02D02E
:1000D000044800E000BF0123237010BD4404002049
:1000E00000000000E0150008084B10B5002B03D0FD
:1000F0000749084800E000BF07480368002B00D10B
:1001000010BD064B002BFBD09847F9E7000000001C
:1001100048040020E015000844040020000000000E
:1001200010B51A4B1A4C022801D0052817D100220D
:100130001A7002280CD1174A1278002A19D101220C
:100140002270187800F082FD207800F0A5FD10BD27
:1001500005280ED10F4A1278002A0AD0EFE70229AB
:1001600001D0052907D101221A700229E3D00529FF
:10017000F0D00022E4E7022A01D0052AE1D10221D1
:1001800019708A42D7D0052AF3D1E3E70100002095
:100190000000002068040020F0B5484B8BB01C68BC
:1001A000012C1CD100251022290006A81D6001F099
:1001B00021F9434E3268B36F9B1A99091A09521AF2
:1001C0005008DB092900D218C51AC318CF00F71B45
:1001D00078683F68C01BA84201D3904203D9394BCD
:1001E00018880BB0F0BD984202D906AFC819C47385
:1001F000013908001030E9D106AAD27A06ABDB7BC0
:10020000019206AAD2790199029206AA977B927A64
:100210005940039206AA9279049206AA567B527A12
:10022000059206AA5279944606AA157B147A029A78
:100230005140C8000399049A794051402A0089002E
:10024000014306A800796240424060461143059A86
:100250007240424052000A4306A806A9C978807835
:10026000C9008000084306A9097852B2084306A9CC
:1002700049784900014349B28A42B0D162469B02A3
:100280007F023B431343002236023343ED011D43FB
:10029000019BE4009B011D43039B5B011D43059BE8
:1002A0001B011D43029B2C439B001C43049B5B00D2
:1002B0001C43044B1C80044B1A8090E774040020FC
:1002C0007C040020600400207004002070B5754B91
:1002D000002850D11C78002C13D09024E405256808
:1002E000714E2E408025ED02354325608025032682
:1002F000AD00A5626D4D2C68B443023E34432C60C2
:10030000AE611870002967D15878002814D0902069
:10031000C0050468664D2540802464022C430460B7
:100320008024640084620468624D25408024E401D6
:100330002C430460802484615970002A00D07DE041
:100340009978002915D09021C90508685A4C0440B5
:10035000802040032043086080200C24C000886275
:1003600052490868A043040004202043086002208A
:1003700088619A7070BD012814D11C78012CC0D0FE
:100380009026F6053468484D2540802424032C43EC
:1003900003253460454E3468AC43250002242C43C9
:1003A0003460AEE70228ACD11C78022CA9D090248E
:1003B000E40525683C4E2E408025ED02354325603E
:1003C00080250326AD00A562384D2C68B443023E5B
:1003D00034432C60AE6294E7012913D15878012888
:1003E000AAD09020C0050468314D25408024A40285
:1003F0002C43046004682F4D2540802424022C43A4
:10040000046099E7022997D15878022800D193E730
:100410009020C0050468264D2540802464022C43AA
:1004200004608024640084620468224D2540802496
:10043000E4012C430460802484627DE7012A14D106
:100440009978012995D09024E40521681A4808403C
:100450008021890301430C202160144C21688143D1
:10046000080008210143216083E7022A00D080E7C9
:100470009978022900D17CE79021C90508680E4CC3
:100480000440802040032043086080200C24C000EA
:10049000886206490868A0430400042020430860DD
:1004A0008A6266E702000020FFFFF3FF00040048B5
:1004B000FFFFFCFFFF3FFFFFFFFFCFFFF0B599B04D
:1004C00000F0FEF900F04AFAF0239025DB00022745
:1004D000032606930023ED05744C06A92800099312
:1004E0000A93079708960B9700F0F4FC06A92000E2
:1004F000069600F0EFFC2A686D4B1A408023DB0261
:1005000013432B60802301229B00AB622368B3431B
:1005100013432360A2612A68664B1A4080235B0262
:1005200013432B6080235B00AB622A68624B1A4046
:100530008023DB0113432B608023AB612A685F4B70
:100540001A4080235B0313432B6080230C22DB00C3
:10055000AB6223689343083A13432360A76100F01A
:1005600021FA00F0E5FA002000F01EFB33230C9383
:1005700000230CA92800109311930D960E9600F0FD
:10058000A9FC00F019FB04232800012512A91293ED
:10059000139714961697179700F09CFC00F02EFA0C
:1005A000434B0293434B0393434B0493434B0593B9
:1005B00000F012FAF422424EFF3233880190934247
:1005C00001D801333380FFF7E7FD3188FA260300B5
:1005D0003C4A7600B1422CD02F282AD93A4F39888C
:1005E000632906D88021031C4900884200D90B1CCE
:1005F0009BB21278012A03D15B0898B200F0D4FABA
:10060000324E3388C82B11D9280000F05FFB00233D
:100610003B8033802E4B187800F0C2F800F0DCF9F4
:10062000019BC01A80B27C28F8D9C1E7013333801E
:10063000F4E70020157000F049FB9023DB051968F2
:10064000029A11408022D2020A431A6080220321BA
:1006500092009A6222688A432A432260A56119683F
:10066000039A1140802252020A431A6080225200EB
:100670009A621968049A11408022D2010A431A60D2
:1006800080229A611968059A1140802252030A4318
:100690001A608022D2009A620C22236893431A00C7
:1006A0000423134323600223A361B7E70004004837
:1006B000FFFFF3FFFFFFFCFFFF3FFFFFFFFFCFFF49
:1006C00070040020640400206204002066040020FE
:1006D00068040020F7B5294E04003388019300F028
:1006E000EDFA274F3B7883422DD1264D0A202B88E7
:1006F000632B00D9032000F075F900F0DFFA3B7896
:10070000834220D10020204B188000F0DFFA2B8894
:100710001E4F0F2B18D81E4A012011680B015B1ABF
:100720000199641AA4B21C1923091360A3099BB28E
:10073000E4093B801C19174B1C8000F0C7FA2B887A
:10074000154A934217D9F7BD348000F0D5FA3388A3
:10075000C01A3B8880B28342F7D8104B187800F05B
:100760001FF800F0C9FA3388C01A0A4B80B21B8800
:100770008342F6D8CFE701332B80E4E772040020F0
:10078000000000206204002066040020780400209D
:100790006C0400206A040020E703000068040020C5
:1007A000002310B52F4CE356002836D15A1C22DA0C
:1007B00007335BB223700123E3565A1C21DA073357
:1007C0005BB263700223E3565A1C20DA073302221D
:1007D000012100205BB2A370A256234B6156205624
:1007E0009A5C595C185CFFF771FDA27861782078FB
:1007F000FFF796FC10BD042B01DD053BD9E7013363
:10080000D7E7042B01DD053BDAE70133D8E7042BFA
:1008100001DD053BDBE70133D9E7002B0FDC0533B6
:100820005BB223700123E356002B0EDC05335BB271
:1008300063700223E356002B0DDC0533C7E7062B5C
:1008400001DD073BECE7013BEAE7062B01DD073B57
:10085000EDE7013BEBE7062B01DD073BB7E7013B8B
:10086000B5E7C04605000020080000200D48854679
:10087000002103E00C4B5B58435004310B480C4BF8
:1008800042189A42F6D30B4A02E000231360043266
:10089000094B9A42F9D300F045FA00F045FDFFF705
:1008A0000DFEFEE7002000201016000800000020CA
:1008B0004404002044040020A0050020FEE70000BE
:1008C00010B500F02FFA01221C490B689343134323
:1008D0000B601B4B19680A431A6002221968114207
:1008E000FCD05A6817491140A02292030A430F21F5
:1008F0005A60DA6A8A43DA628022196852040A432B
:100900001A608022920419681142FCD0F0215A68C2
:100910008A435A605A68ED398A43110002220A4319
:100920000C215A605A680A40082AFBD15A680649C5
:1009300006480A405A6000F0F1FC10BD0020024059
:1009400000100240FFFFC2FFFFF8FFFF006CDC0257
:100950007047FEE770477047704700000D4B0E4828
:10096000596984B0014359615A6902400392039A5C
:100970000A48D9690143D961DA69094902400292FA
:10098000029A9A690A439A619B690B400193019B01
:1009900004B070470010024001000600130002007E
:1009A000014A06002F2310B586B001A90B80084B21
:1009B000084C8B6000232000CB600B744B6000F070
:1009C000E5FA012322681343236006B010BDC04638
:1009D000FFFF000000100040014B586A80B27047D2
:1009E00000100040044A516A89B2536A5B1A9BB2F4
:1009F0008342FAD37047C04600100040F0B580250E
:100A000001230026012495B0ED0505A95B422800CD
:100A10000E808B60CE600E744E6000F0B7FA2B68CB
:100A2000802123432B600A23019380235B020293DE
:100A300004231F4F01AA490028000493039600F0E5
:100A4000F7FB2100380000F0D9F91A4B80220A93F5
:100A5000194B0F920B93202380220C960D930E9628
:100A600012938026C0231201B60011929B010AAA9C
:100A7000210038001393109600F004FAC2200F4BA7
:100A800080001A580E491140802212020A431A505F
:100A900002221E600B4B19680A4380211A60EA6823
:100AA00009010A43EA601A6814431C6015B0F0BDDE
:100AB000000002403C000040FC04002000E100E097
:100AC000FF00FFFF0800024070B5022413480368CE
:100AD000234212D0124944608A680D68CB6F551BBF
:100AE00011226A430E689B1B9A4207D980220D4847
:100AF00000F03EFC01220C4B1A6070BD0121202544
:100B00000A4B1A688A431A605A68120C12042A4364
:100B10005A6044601A6811431960EEE70000024011
:100B2000FC0400207C040020740400200800024023
:100B3000802370B500251B4C8EB001A90126DB0077
:100B400020000D808B60CD600D744D6000F01EFAAA
:100B5000602306AA3100200006930796089609959F
:100B60000A950C950B950D9500F060FA06AA1021D8
:100B7000200000F05BFA802106AA4900200000F066
:100B800055FAFF22636C93431A00032313436364F3
:100B900023681E4380232660626C1B021343636438
:100BA0000EB070BD002C0140024B58639863D863AF
:100BB0007047C046002C0140042370B590B00A93E2
:100BC0002C330C93C023002401261C4D0AA9DB0002
:100BD00028000E930B940D940F9400F0D3F82B681B
:100BE00005A933432B600523154D0B80154B2800B9
:100BF0008B60CC600C744C6000F0C8F92B6801AAC3
:100C000033432B600A230193802331005B022800C9
:100C100002930394049400F00BFB0223C421EA68BE
:100C200009481343FF22EB608900435893431A009D
:100C300040231343435010B070BDC0461C00014018
:100C400000040040FFFF000000E100E000280BD19D
:100C500070220E490B6893431A00402313430B6024
:100C60000B4A0C4B1A617047012806D170220749C4
:100C70000B6893431A005023F0E70228F0D170224A
:100C800002490B6893431A006023E7E71C00014008
:100C9000FDFF0000000400400A21064B1A6A8A4347
:100CA000002803D11A62044A1A6170471100022217
:100CB0000A43F7E700040040FDFF00000120024B5B
:100CC0001B689B0B984370471C00014080235B020C
:100CD000012805D1044A05491161054A136070478E
:100CE000044AD367FBE7C04600040040FDFF000054
:100CF00000E100E004E100E0014B586A80B2704777
:100D000000040040054B10B51A69920705D5044A46
:100D10001A61586B80B2FFF7DDFC10BD0004004083
:100D2000FDFF00000121114B11481A680A431A60A7
:100D30005A6802405A601A680E4802401A601A68DF
:100D40000D4802401A605A680C4802400F205A6051
:100D5000DA6A8243DA621A6B094802401A635A6BF4
:100D60008A435A6300229A607047C04600100240CE
:100D70000CB8FFF8FFFFF6FEFFFFFBFFFFFFC0FF11
:100D8000ACFEFFFF194B70B5C2188023D2001B02C6
:100D90009340174C002526681E40B34214D00B68C0
:100DA0004E688D68A04211D133432B43CD6804684F
:100DB0002B430D6949692B430B430E4993409140E6
:100DC0008C43234303600125280070BD33432B432C
:100DD000CD6820682B430D6949692B430B430649B5
:100DE00093409140884303432360ECE7E4FFFEBF58
:100DF0001C0001407E3F00007C3F00001B4B30B5D3
:100E00000400984207D1012914D0022914D00329E3
:100E100014D0042914D0164A012500201368AB43CE
:100E20001360106050609060D060A9420AD1080041
:100E3000616030BD0F4AEFE70F4AEDE70F4AEBE77D
:100E40000F4AE9E71023022903D0032904D18023A4
:100E50005B0063602800ECE7042902D180235B017A
:100E6000F7E70529E5D180235B02F2E700000240A5
:100E700058000240080002401C00024030000240BE
:100E800044000240114B10B5591801390B78D46851
:100E9000C0189368016823431469234354692343AA
:100EA00094692343D4692343546A2343084C214063
:100EB0000B4303605368C3601368126A836043681E
:100EC0001B0C1B0413434360012010BDF8150008E0
:100ED0000F80FFFFF0B500260F6885B03B00F340A0
:100EE0000CD14B68013B012B05D8CA6843687A4393
:100EF000BB4313434360012005B0F0BD0123B34061
:100F00003B4036D04A68032501921A005A435543A4
:100F1000ED43046802952C40019D55432C43046029
:100F2000019C013C012C0AD88468A44665468C6863
:100F300054430394029C2540039C2C438460C46862
:100F4000A44665460C6954430394029C2C4025003A
:100F5000039C2543019CC560022C0AD14C69FF2BE0
:100F600009D80F25524355436243036AAB431343E9
:100F700003620136B2E70F221B0A5B435B435A430D
:100F80006343456A95431D434562F2E703000268E7
:100F90001F4810B5834206D08024E405A34202D046
:100FA0001C4CA3420CD17024A2434C6822438342C0
:100FB00012D08024E405A3420ED0164CA3420BD0DD
:100FC000154CA34208D0154CA34205D0144CA342A3
:100FD00002D0144CA34203D1134C2240CC682243CC
:100FE0001A608A68DA620A889A62834208D00B4AD9
:100FF000934205D00A4A934202D00A4A934201D151
:101000000A7C1A6301205A6902435A6110BDC04626
:10101000002C01400004004000200040004001403E
:101020000044014000480140FFFCFFFF70B510295B
:101030006FD003D8012935D00020A7E080235B00C2
:10104000994200D1A3E080235B019942F4D1036A65
:101050006B4E6C4D33400362036A4168C4692C4097
:1010600015682D022C43684D1D4013691B032B434B
:10107000556833402D032B43644DA84208D0644D7E
:10108000A84205D0634DA84202D0634DA84204D1C6
:10109000624D29409569AD012943D2684160C46120
:1010A000026434E07326036A8B430362036A446874
:1010B0008569B543166835430226B3431669334341
:1010C0008B4351680B435149884208D050498842AC
:1010D00005D05049884202D04F49884213D1082197
:1010E0008B43190053699B000B4304218B43916888
:1010F00089000B434A490C4091690C4349490C4013
:10110000D16949000C43D26844608561426303623F
:101110003BE0036A3B4E8B430362056A4368846984
:1011200034401668360234432026B5432E00156934
:101130002D0135438D43290055682D012943334D39
:10114000A84208D0324DA84205D0324DA84202D064
:10115000314DA84214D18025A9430D005169890160
:1011600029434025A9439568AD0129432E4D1D40D3
:1011700093699B002B432D4D2B40D569ED002B43EC
:101180004360D368846183630162012070BD73256D
:10119000036A234E33400362016A4368C469AC4367
:1011A00015682C431F4D0D401169090229435568EC
:1011B00031402D022943154DA84208D0144DA842B4
:1011C00005D0144DA84202D0134DA84213D1174D9B
:1011D0000D40516989022943134D29409568AD029C
:1011E0002943074D1D4093691B012B43064D2B409E
:1011F000D5696D012B434360D368C461C363C3E702
:10120000FFEFFFFFFF8CFFFFFFDFFFFF002C014020
:10121000004001400044014000480140FFBFFFFF83
:10122000FFFEFFFFFFFDFFFFFFFBFFFFFFF7FFFFDD
:1012300030B5102939D003D801291FD0002033E060
:1012400080235B00994247D080235B019942F5D10E
:10125000036A2D4CD568234003625368C4692B434D
:10126000956812682B43294D1B0A2C402343120317
:10127000C361036A1143264A134042E0036AD568FA
:101280008B430362536884692B4395682B43FF2586
:101290001B0CAC432343836113680A22046A0B438B
:1012A000944323430362012030BD036AD5688B4316
:1012B0000362536884692B4395682B43134D1B0AC3
:1012C0002C40234383611368046A1B011943A02344
:1012D0009C4321430162E6E7036A0E4CD568234034
:1012E00003625368C4692B4395682B43FF251B0C8D
:1012F000AC432343C3611368046A1B021943064BC2
:1013000023401943E6E7C046FFEFFFFFFF00FFFF62
:10131000FF5FFFFFFFFEFFFFFFF5FFFF014B1860C0
:101320007047C0461000002070B50D4E0D4D0024D2
:10133000AD1BAD1005D0A300F35801349847A5426A
:10134000F9D100F04DF9084E084D0024AD1BAD1049
:1013500005D0A300F35801349847A542F9D170BDD8
:101360000416000804160008041600080C160008ED
:10137000F0B505000F2A2FD90B0003439B0734D18A
:1013800016000C000300103E350901352D014519EA
:1013900027681F6067685F60A7689F60E768103410
:1013A000DF6010339D42F3D10F239E431036851921
:1013B00089191340032B1AD91E1F0023B4080134C6
:1013C000A400CF58EF500433A342FAD10324A6431C
:1013D000331D2240C918ED18002A05D00023CC5C2B
:1013E000EC5401339342FAD1F0BD0500F6E71A0040
:1013F000F2E7C046F0B5830743D0541E002A3FD021
:10140000CEB20200032502E01A00013C38D3531C7F
:1014100016702B42F8D1032C2AD9FF220A4015025C
:1014200015432A0415430F2C14D927001A00103F26
:101430003E09013636019E19156055609560D560EC
:1014400010329642F8D10F2297431037DB1914401F
:10145000032C0DD91A00271FBE080136B6009E19AD
:1014600020C2B242FCD1032297430437DB19144057
:10147000002C05D0C9B21C19197001339C42FBD154
:10148000F0BD14000300C6E7034B10B5002B02D0DB
:10149000024800F005F810BD00000000B11400087B
:1014A00010B5010000230022002000F01FF810BD3D
:1014B00070B5094B094CE41AA41009D0084AA518C4
:1014C000AD00ED182B68013C9847043D002CF9D184
:1014D00000F08CF870BDC0460C160008101600080D
:1014E000FFFFFF3F7047C0467047C046F0B54E460D
:1014F0004546DE465746E0B5364D83B006002868BF
:1015000098460F009146FFF7EDFF334B1C68A4236C
:101510005B00E058002852D043681F2B13DC5A1C94
:101520000192002E28D1019A02339B0042601F5085
:101530002868FFF7D9FF002003B03CBC90469946CD
:10154000A246AB46F0BD254B002B3DD0C820400045
:1015500000E000BF002837D0A42200235200A15889
:1015600043600160A0504032835004328350013305
:1015700001930023002ED6D09A00924682444A4618
:10158000882154466250C4225200914681444A4602
:101590008739994012688B460A4394464A46614609
:1015A0001160842241465200A150022EBBD102009C
:1015B0005C468D32FF3211680C431460B3E72000A3
:1015C0004D30FF30E050A7E72868FFF78DFF01207E
:1015D0004042B1E74004002000160008000000006F
:1015E000F8B5C046F8BC08BC9E467047F8B5C04682
:0815F000F8BC08BC9E467047E0
:0C15F800081C30445800000018000020BF
:0816040089140008E900000848
:04160C00C100000811
:1016100001010A0A0A00020400000201010200009E
:1016200000127A0000000000000000000403002007
:101630006C030020D4030020000000000000000024
:10164000000000000000000000000000000000009A
:10165000000000000000000000000000000000008A
:10166000000000000000000000000000000000007A
:10167000000000000000000000000000000000006A
:10168000000000000000000000000000000000005A
:10169000000000000000000000000000000000004A
:1016A000000000000000000000000000000000003A
:1016B000000000000000000000000000000000002A
:1016C000000000000000000000000000000000001A
:1016D00001000000000000000E33CDAB34126DE6B7
:1016E000ECDE05000B000000000000000000000020
:1016F00000000000000000000000000000000000EA
:1017000000000000000000000000000000000000D9
:1017100000000000000000000000000000000000C9
:1017200000000000000000000000000000000000B9
:041A50007C050020F1
:040000050800086D7A
:00000001FF
