:020000040800F2
:1000000000200020351400081D15000821150008E7
:1000100000000000000000000000000000000000E0
:10002000000000000000000000000000251500088E
:100030000000000000000000291500082D15000830
:10004000851400088514000885140008851400082C
:10005000851400088514000885140008851400081C
:1000600085140008A51600088514000885140008EA
:1000700085140008851400088514000885140008FC
:100080000D19000885140008000000008514000800
:1000900085140008851400088514000885140008DC
:1000A00085140008851400088514000895190008B7
:1000B00085140008000000008514000800000000FE
:1000C00010B5064C2378002B07D1054B002B02D02E
:1000D000044800E000BF0123237010BD4C04002041
:1000E0000000000078290008084B10B5002B03D051
:1000F0000749084800E000BF07480368002B00D10B
:1001000010BD064B002BFBD09847F9E7000000001C
:1001100050040020782900084C0400200000000052
:10012000002243088B4274D303098B425FD3030A36
:100130008B4244D3030B8B4228D3030C8B420DD349
:10014000FF22090212BA030C8B4202D312120902D7
:1001500065D0030B8B4219D300E0090AC30B8B4215
:1001600001D3CB03C01A5241830B8B4201D38B03C3
:10017000C01A5241430B8B4201D34B03C01A524168
:10018000030B8B4201D30B03C01A5241C30A8B42AB
:1001900001D3CB02C01A5241830A8B4201D38B0296
:1001A000C01A5241430A8B4201D34B02C01A52413A
:1001B000030A8B4201D30B02C01A5241CDD2C309AC
:1001C0008B4201D3CB01C01A524183098B4201D328
:1001D0008B01C01A524143098B4201D34B01C01A13
:1001E000524103098B4201D30B01C01A5241C3088B
:1001F0008B4201D3CB00C01A524183088B4201D3FA
:100200008B00C01A524143088B4201D34B00C01AE5
:100210005241411A00D20146524110467047FFE751
:1002200001B5002000F0F0F802BDC0460029F7D06B
:1002300076E7704703460B437FD4002243088B4286
:1002400074D303098B425FD3030A8B4244D3030B5D
:100250008B4228D3030C8B420DD3FF22090212BA22
:10026000030C8B4202D31212090265D0030B8B429E
:1002700019D300E0090AC30B8B4201D3CB03C01A88
:100280005241830B8B4201D38B03C01A5241430B63
:100290008B4201D34B03C01A5241030B8B4201D353
:1002A0000B03C01A5241C30A8B4201D3CB02C01ABE
:1002B0005241830A8B4201D38B02C01A5241430A36
:1002C0008B4201D34B02C01A5241030A8B4201D325
:1002D0000B02C01A5241CDD2C3098B4201D3CB01CC
:1002E000C01A524183098B4201D38B01C01A52417B
:1002F00043098B4201D34B01C01A524103098B427F
:1003000001D30B01C01A5241C3088B4201D3CB0069
:10031000C01A524183088B4201D38B00C01A52414C
:1003200043088B4201D34B00C01A5241411A00D2FC
:1003300001465241104670475DE0CA0F00D0494265
:10034000031000D34042534000229C4603098B42D5
:100350002DD3030A8B4212D3FC22890112BA030A5D
:100360008B420CD3890192118B4208D389019211DF
:100370008B4204D389013AD0921100E08909C30964
:100380008B4201D3CB01C01A524183098B4201D366
:100390008B01C01A524143098B4201D34B01C01A51
:1003A000524103098B4201D30B01C01A5241C308C9
:1003B0008B4201D3CB00C01A524183088B4201D338
:1003C0008B00C01A5241D9D243088B4201D34B0053
:1003D000C01A5241411A00D20146634652415B1095
:1003E000104601D34042002B00D549427047634676
:1003F0005B1000D3404201B5002000F005F802BDBB
:100400000029F8D016E770477047C04610B502289B
:100410001ED005280BD0022926D0052947D0022A54
:100420002ED0052A37D0284B284C18780AE0002215
:10043000254B1A70264B1B78002B10D1002300206F
:10044000224C237001F004FA207801F029FA10BD43
:1004500000221D4B1A701E4B1B78002BEED101237E
:100460001A4C00202370EDE70122174B1A70184B2D
:100470001B78002B22D00023144C01202370E1E7CD
:10048000114B1A70124B1B78002B0BD000230F4C12
:1004900002202370D6E702220B4B1A700C4B1B78FC
:1004A000002BF3D00123094C02202370CAE701225C
:1004B000054B1A70064B1B78002BDCD00123034C34
:1004C00001202370BEE7C04601000020000000208C
:1004D0007A040020F0B5DE4657464E464546E0B564
:1004E0004B4B87B01A68012A08D04A4B188807B0CE
:1004F0003CBC90469946A246AB46F0BD0022002186
:100500001A6002A8103202F041F9434A1168936F51
:1005100016005B1A99091809401ADB094408E51A04
:10052000C018E41801239C4602A980365368176856
:10053000DB1BAB42D9D38342D7D8A34201D9634650
:10054000CB73083201399642F0D102AAD27A02ABBB
:10055000944602AAD479927BDB7B924602AA977AD0
:10056000927902A90192497B894602A94E7A49797A
:100570008B4602A9097B884602A90D7A614659403B
:100580006140C800514679405140424689000143CC
:1005900002A800796A40424011434A4658467240D8
:1005A000424052000A4302A802A9C9788078C900D3
:1005B0008000084302A9097852B2084302A9497889
:1005C0004900014349B28A4200D08EE7980253465F
:1005D0005B0218435B4618434B461B0218434346D5
:1005E000DB011843634600229B0118437F01384317
:1005F0003601019B3043ED00A400284320435C00FA
:100600002043044B80B21880044B1A806FE7C04629
:10061000A804002068040020F8040020080000203E
:100620000022054B1A70054B0132FF321A80044B31
:10063000803A1A807047C0467A0400206E04002079
:100640006C04002070B5764B00284CD11C78002C2F
:1006500000D07AE01870002927D1587800285ED1A0
:100660005970002A05D19978002900D0C1E09A700C
:1006700070BD012A7ED0022AF9D199780229F6D0DC
:100680009021C9050868674C04408020400320433E
:10069000086080200C24C000886263480168A14380
:1006A000083C214301608262E1E7012900D18BE02F
:1006B0000229D5D158780228D2D09020C0050468EC
:1006C0005A4D2540802464022C4304608024640039
:1006D00084620468564D25408024E4012C43046064
:1006E00080248462BCE7012859D00228B2D11C784A
:1006F000022CAFD09024E40525684E4E2E40802574
:10070000ED023543256080250326AD00A562464DE8
:100710002C68B443023E34432C60AE629AE79020CA
:10072000C0050468414D2540802464022C430460C8
:1007300080246400846204683D4D25408024E401E7
:100740002C430460802484618AE79024E4052568B2
:10075000384E2E408025ED02354325608025032646
:10076000AD00A562304D2C68B443023E34432C608A
:10077000AE616FE79978012900D178E79024E4050C
:1007800021682848084080218903014321600C2406
:1007900025480168A143043C2143016067E71C78B8
:1007A000012C00D156E79026F6053468214D2540EE
:1007B000802424032C43346003261B4D2C68B4434F
:1007C000013E34432C6045E75878012800D147E7C3
:1007D0009020C0050468154D25408024A4022C43B8
:1007E00004600468124D2540802424022C430460D8
:1007F00036E79021C90508680A4C04408020400370
:100800002043086080200C24C000886206480168EC
:10081000A143083C214301600221816127E7C046D2
:1008200004000020FFFFCFFF00040048FFFFFCFF93
:10083000FF3FFFFFFFFFF3FFF0B5DE4657464E4692
:100840004546E0B5A1B000F01FFE00F071FEFFF7D5
:10085000E7FE00F091FE00F069FF002000F0A8FF25
:1008600000F0AEFF00F0B4FE01F060F801F0CEF849
:1008700001F0C8F9402302933F3B032502279A4623
:1008800006930023E34E902402A930009846049575
:100890000793039701F080FB0423E40508A92000D7
:1008A000994608930A9509970C970D9701F074FBE8
:1008B00033230E9343460EA920000F9510951293F3
:1008C000139301F069FB48231493434614A92000B5
:1008D000159516951893199301F05EFBF023DB0034
:1008E0001A9343461AA920001D931E931C951B972B
:1008F0001F9701F051FB1AA930001A9501F04CFB2B
:100900002368C54A01211A408023DB021343236078
:10091000802352469B00A36233680020AB431343FD
:100920003360B2612368BD4A1A4080235B021343DF
:10093000236080235B00A3622368B94A1A408023A6
:10094000DB01134323608023A3612368B54A1A4067
:1009500080235B031343236080230C22DB00A3620C
:10096000336893434A46134333600022B76100F073
:100970000FFB00220021002000F00AFB01220021D1
:10098000002000F005FBA84800F016FEA74BA84D7C
:100990009B46A84B9846A84B9A46A84B994600F010
:1009A00005FE040001F050F95B46A54A1B889342FE
:1009B00002D85A4601331380FFF78CFD5B46FA22BA
:1009C0001B88070006009200934200D175E1524651
:1009D00012682E2A03D89B4A904200D15CE153460C
:1009E0001F600022AB5E642B00DDE7E02F2E00D9F4
:1009F000B2E05B461B88002293490A8093490A7043
:100A0000012B00D871E1002000F064FF9021C9059E
:100A10000B68814A03201A408023DB0213430B60DA
:100A200080237C4A9B008B62136883430238034314
:100A3000136090610B687948184080235B02034380
:100A40000B6080235B008B620B6875481840802325
:100A5000DB0103430B6080238B610B6871481840F6
:100A600080235B0303430B608023DB008B620C213C
:100A700013688B4308390B431360022393612800EA
:100A800001F094F864200222AB5EAA215843FFF7DC
:100A9000D1FB6E4B68801B78002B4FD00423E85E9F
:100AA0006B4B400000229B5EC01AFA238221694AE8
:100AB0009B00490058430026965FFFF7BBFBF200FE
:100AC000961B03B29B19634ADB101BB21380AB80E9
:100AD00000F06CFD0600604B604918880422AB5E94
:100AE000301A80B25843FFF7A5FB4B461B685C49A0
:100AF0009C464B4660441860574B1E80FFF710FB26
:100B0000584BE8801B78012B72D043461B78002B92
:100B10000DD04E4B1E78002E09D1534B534A1B88E3
:100B200001339BB2934200D1FAE04F4A138000F0A8
:100B30003DFD001B80B27C28F9D930E70423E85E34
:100B4000434B400000229A5E1218D30F9B185B1093
:100B50003F4A1BB21380A7E7454B1B88632B06D87F
:100B60008022331C5200964200D9131C9EB2364B91
:100B70001B881A001432964203DD3E498B4200D88E
:100B800096B2314B1E803C4B1F78012F00D1D5E02F
:100B900000232E4A1370394B1B88C82B78D90120AB
:100BA00000F098FE0023324A1380354A1360334A1E
:100BB0001380344B187800F06FF960E74246643BCD
:100BC0009900C918127864312F480192FFF732FB5F
:100BD00080239B00984200DA1800B84200DB9AE0BC
:100BE000019B86B2002BB7D1022342461370FDE66B
:100BF000234B26481968FFF793FA144B28811B787A
:100C0000002B00D12B81280000F0A2FB0023154A05
:100C100013707AE700040048FFFFF3FFFFFFFCFFBB
:100C2000FF3FFFFFFFFFCFFFFFFF00000800002096
:100C30007C04002098040020A004002090040020E0
:100C4000E7030000FF0700009A040020AC04002026
:100C500072040020740400208C040020A08C00008A
:100C6000102700006A040020A40400204C1D00008E
:100C700070040020FF0100007604002078040020AA
:100C8000940400207A0400209C1F030000350C000F
:100C9000364A01331380F2E6002251460A600021F1
:100CA0006A5E642A00DCA6E643461B78002B00D06F
:100CB0009FE64246023313709BE600262C4B002031
:100CC0001E7000F075FD2B4B1B78012B3ED0534658
:100CD0001E600022AB5E642B00DC8AE643461A7875
:100CE000002A00D085E600267EE7214B1B78002BEA
:100CF00000D088E601220121082000F049F91E48B1
:100D000000F05AFC01220121082000F041F90123E2
:100D1000174A137077E6019B002B00D066E663E765
:100D2000164B1E8001220121802000F031F943463C
:100D300001361B78F6B2B342F4D8F8E67608B0B2C2
:100D4000023000F035FD0B4B1F7024E7424612784D
:100D5000002A04D141460B7053461A6049E65346B7
:100D60001E6000216B5E642BBADC42E67804002032
:100D700076040020AC040020FF8F0000A4040020B3
:100D8000F0B54646D6464F46384CC0B58046258815
:100D900000F098FD364E3378834204D01CBC904658
:100DA0009946A246F0BD334B9A465246A02312689C
:100DB0005B009A423ED9304B99461B88632B35D94C
:100DC000032000F0F9FB00F07DFD33788342E5D18C
:100DD00000222A4B00201A8000F07CFD4B461B8825
:100DE0000F2B2AD8264E274F53461A68012013018D
:100DF0009B1A4246551BADB25D1953462D091D6025
:100E0000214A224B12881B886B4355439B0AAD0A2B
:100E1000ED1833603D6000F05DFD4B461C4A1B88B9
:100E20009342BBD84A4601331380B7E70A2000F04B
:100E3000C3FBC8E7104B9946CAE74346104E2380D0
:100E400000F05EFD2388C01A336880B29842F7D361
:100E5000104B187800F020F80A4F00F051FD23885D
:100E6000C01A3B6880B29842F7D3BDE79C040020CB
:100E7000000000209404002070040020780400206A
:100E8000B0040020880400206C0400206E040020C0
:100E9000E70300007A040020002310B53A4CE35623
:100EA000002824D15A1C5DDB042B39DC01335BB2F2
:100EB0000121237061564A1C39DB042961DD0539A3
:100EC00049B202226170A256501C37DB042A55DD5C
:100ED000053A52B22D48A270415C825CC05CFFF7BB
:100EE000B1FBA27861782078FFF790FA10BD002B53
:100EF0003BDD062B25DC013B5BB2012123706156F3
:100F0000002925DD062936DD073949B20222617044
:100F1000A256002A23DD062A2ADD073A52B2D9E773
:100F20000121053B5BB2237061564A1CC5DA0222DF
:100F3000073149B26170A256501CC7DA073252B26B
:100F4000C8E70121073B5BB2237061560029D9DC59
:100F50000222053149B26170A256002ADBDC05325B
:100F600052B2B7E707335BB2A2E705335BB2C4E71F
:100F7000013A52B2AEE7013949B2C7E7013252B283
:100F8000A8E7013149B29CE70C00002010000020C6
:100F9000F0B5DE4657464E464546E0B587B001906F
:100FA00000200C000491059200F094FC9023DB05D6
:100FB0001A68E049032011408022D2020A431A60D5
:100FC000802292009A62DC4A116881430238014310
:100FD000116090621968D948084080214902014394
:100FE00019608021490099621968D548084080211C
:100FF000C90101431960802199621968D1480840EC
:1010000080214903014319608021C90099620C21A4
:10101000136800208B4308390B431360022393624B
:1010200000F0C6FB002C00D17FE10F239027039333
:101030000023C14D0293FF05022B00D967E1049BF9
:10104000002B00D06DE1C04B009376E08024BD4AB8
:101050006403134023433B60802390460C22DB0053
:10106000BB629B462B6891469343083A13432B601F
:1010700002239246AB625F2800D9B0E03B68AF4ADA
:10108000019C1A4080239B0213433B603B68AC4A9F
:1010900021001A4080231B0213433B603000FFF7FE
:1010A000C9F880B200F088FA32202100801BFFF7D7
:1010B000C1F880B23B689F4A042613408022D202C6
:1010C00013433B60802303229B00BB622B680224F6
:1010D0009343023A13432B60AA623B689246974AB5
:1010E00013408022520213433B6080235B00BB62AB
:1010F0003B68934A13408022D20113433B60802314
:10110000BB623B688F4A13409346802252031343CD
:101110003B60802391460C22DB00BB6298462B6823
:10112000934333432B60AC6200F046FA009B874A3E
:10113000023300939A4200D191E000F085FD3B68B4
:101140007C4A13408022D20213433B608023032257
:101150009B00BB622B689343023A13432B60AA6146
:1011600000F024FA7F231840009B1E883B68312E34
:1011700000D86BE7714A80241340914680225202C6
:1011800013433B6080235B00BB626D4A9B463B6818
:10119000E401134023433B60802390469A46BB62A0
:1011A0005F283BD83A68634B30001A4080231B030A
:1011B000134303223B602B68019C9343013A134382
:1011C0002B6021003238FFF735F880B200F0F4F9D7
:1011D00064202100801BFFF72DF880B26AE74346A8
:1011E0003A681A4080239B0313434A463B602B68AE
:1011F0009343043A13432B6000F0DEF942463B6808
:1012000013401C435B464A463C60BB622B689343D9
:10121000524613432B600223AB622FE74B463A68DA
:101220001A4080239B0213433B6043463A681A40AE
:1012300080231B0213433B6000F0BEF94A463B6823
:1012400013408022520213433B605B464246BB621E
:101250003B6813401C4353463C60BB62A2E7029BC1
:10126000039A0133DBB2073202930392062B00D0BC
:10127000E2E6002000F09CFA9023DB051B682D4A73
:1012800013408022D20213439022D2051360130030
:10129000802292009A622B68FE3AFF3A93435246AC
:1012A00013432B609023AA62DB051B68234A13407B
:1012B0008022520213439022D20513601300802231
:1012C00052009A621B681E4A13408022D2011343C7
:1012D0009022D2051360130080229A625A461B683E
:1012E00013404A461A4313009022D205136013009C
:1012F00042469A620C222B6893431E432E60AC62D6
:1013000007B03CBC90469946A246AB46F0BD059B53
:10131000002B00D197E64820039BC01A00F048FA42
:1013200091E6039800F044FA8DE61E2000F040FAA2
:101330007BE6C046FFFFF3FF00040048FFFFFCFF11
:10134000FF3FFFFFFFFFCFFF90290008E82B0008B9
:1013500030B5038885B001AA13700221435E1912CB
:10136000517093700421435E1912D17013710621DC
:10137000435E1912517193710821435E07201912BF
:10138000D1711372002100231FE0DCB21D0626D4A8
:101390005B00DCB21D0627D45B00DCB21D0628D43E
:1013A0005B00DCB21D0629D45B00DCB21D062AD42A
:1013B0005B00DCB21D062BD45B00DCB21D062CD416
:1013C0005B000131DBB209292DD0545C63405CB273
:1013D0005B00002CD9DA4340DCB21D06D8D563008F
:1013E0004340DCB21D06D7D563004340DCB21D0686
:1013F000D6D563004340DCB21D06D5D5630043401B
:10140000DCB21D06D4D563004340DCB21D06D3D543
:1014100063004340DCB21D06D2D563004340013176
:10142000DBB20929D1D101311000537200F0D2FA98
:1014300005B030BD0D488546002103E00C4B5B58DC
:10144000435004310B480C4B42189A42F6D30B4AD6
:1014500002E0002313600432094B9A42F9D300F0F2
:10146000FBFB01F02DF9FFF7E7F9FEE70020002074
:10147000182C0008000000204C0400204C04002020
:1014800094060020FEE7000010B500F0E5FB012106
:101490001D4A13688B430B4313601C4A13680B43AC
:1014A0001360013113681942FCD053681849194080
:1014B000A0239B030B430F215360D36A8B43D3625A
:1014C000802311685B040B43802113600F4A890459
:1014D00013680B42FCD0F02153688B435360536870
:1014E000ED398B4301390B435360084A0A31536885
:1014F0000B40082BFBD15368064907480B4053604B
:1015000001F0D8F810BDC046002002400010024093
:10151000FFFFC2FFFFF8FFFF006CDC027047C04610
:10152000FEE7C0467047C0467047C0467047C04699
:101530000D4B0E48596984B0014359615A69024004
:101540000392039A0A48D9690143D961DA690949C2
:1015500002400292029A9A690A439A619B690B407F
:101560000193019B04B07047001002400100060087
:1015700013000200014A06002F2310B586B001A90E
:101580000B80084B084C8B6000232000CB600B7451
:101590004B6000F021FE012223681343236006B054
:1015A00010BDC046FFFF000000100040014B586A0C
:1015B00080B2704700100040044A516A89B2536AF1
:1015C0005B1A9BB28342FAD37047C04600100040BA
:1015D000F0B5C646012300B5802494B005A95B424E
:1015E00000258B6000230126E40520000D80CD60DE
:1015F0000B744D6000F0F0FD2368802133432360BD
:101600000A23019380235B020293042301AA490069
:1016100020000395049300F047FF1C4B01211800A4
:10162000984600F027FC1A4B0C950A93194B0E951F
:101630000B93202380220D93129380278025C023B3
:101640000F92BF009B010AAA2D010121404611956E
:101650001393109700F078FCC2200F4B80001A58AB
:101660000E491140802212020A4302211A501F60C3
:101670000B4B1A680A431A60E2681543E5601A6862
:1016800032431A6014B004BC9046F0BD0000024022
:101690003C000040F005002000E100E0FF00FFFFFB
:1016A0000800024002211B4A70B5136819421FD07E
:1016B000194C5160A3682568E06F5B1B26681D010B
:1016C000EB18801B834214D980222100134801F0BB
:1016D0001BF8E26DA06DA3682168121A5B1A5B0803
:1016E0009A4202D901220E4B1A7001220D4B1A6048
:1016F00070BD01250C480468AC4304602024436895
:101700001B0C1B0423434360516003682B4303609D
:10171000EEE7C04600000240F0050020F80400207B
:101720006A040020A804002008000240802370B54D
:101730008EB001A9DB0000258B6000231B4C012625
:1017400020000D80CD600B744D6000F045FD6023DE
:1017500006AA0121200006930796089609950A9586
:101760000C950B950D9500F091FD06AA1021200017
:1017700000F08CFD802106AA4900200000F086FDC3
:10178000802106AA4901200000F080FDFF22636C41
:101790009343FC3A134363642368334323608023F9
:1017A000626C1B02134363640EB070BD002C0140D9
:1017B000024B58639863D86318647047002C01404B
:1017C000042370B590B00A932C330C93C0230024EB
:1017D00001261B4D0AA9DB0028000E930B940D94E3
:1017E0000F9400F007FB2B6805A933432B600523FA
:1017F000144D0B80144B28008B60CC600C744C6033
:1018000000F0EAFC2B6801AA33432B600A23019302
:10181000802301215B02280002930394049400F0CA
:1018200043FE0222EB68FF201343C4220749EB600A
:1018300092008B588343BF3803438B5010B070BD68
:101840001C00014000040040FFFF000000E100E038
:1018500000280ED0012814D0022806D170210D4A8C
:1018600013688B4310390B4313600B4A0B4B1A61FF
:1018700070477021074A13688B4330390B4313605C
:10188000F3E77021034A13688B4320390B4313603D
:10189000EBE7C0461C000140FDFF000000040040D3
:1018A0000A21064A136A8B43002801D008390B43EA
:1018B0001362034A014B1A617047C046000400409E
:1018C000FDFF00000120024B1B689B0B98437047F3
:1018D0001C000140012805D080218023054A4902CF
:1018E000D1507047044A054B1A61024B03321A600B
:1018F000F7E7C04600E100E0FDFF00000004004003
:10190000014B586A80B2704700040040054B10B587
:101910001A69920705D5044A1A61586B80B2FFF71D
:101920002FFA10BD00040040FDFF000010B5174C59
:1019300088B0200000F034FE0822A36801A91343F8
:10194000A360E1235B020193002304322000029391
:101950000393049305920693079300F04DFE012232
:10196000C6208021236880001343094A236013584E
:1019700009061B021B0A0B43135080231B0513602F
:10198000802223681343236008B010BD0038014053
:1019900000E100E080220B4B10B5D9690A4206D065
:1019A00009480178002903D119689143196010BDD5
:1019B000064A074C1278521AA25C01391A85017046
:1019C000F5E7C04600380140F5040020F40400208B
:1019D000B4040020094B10B51970094B1970002987
:1019E00006D00139CAB201320100064800F08CFE6F
:1019F0008021054A13680B43136010BDF4040020D6
:101A0000F5040020B404002000380140F0B5802423
:101A10005A4A5B49136864000B402343043195B074
:101A20001360FF31574800F025FA574B80270A937F
:101A3000564B00250B9320230D9360330F93802387
:101A4000DB0011933C23BF010AAA02214D481094E8
:101A500012930C950E95139700F076FA01214C4ADB
:101A60004C4E13684C4C0B431360300000F024F9CB
:101A7000200000F031F9802301A8DB0501930295D5
:101A80000395049500F096F93368444A05A91A4075
:101A900080231B0413433360032308938023200017
:101AA0005B01099305950695079700F08BF90422D1
:101AB000E3683B489343E360636903329343053A29
:101AC000134363618023A26A5B0213430822A3626B
:101AD000A36A1343A362A36A38321343A362A368C1
:101AE000304A1A4080231B0613432F4AA360516AD1
:101AF00089B2536A5B1A9BB28342FAD9264A936829
:101B0000002BFCDB284A2648516A89B2536A5B1ACB
:101B10009BB28342FAD901211F4B21481960526AB6
:101B2000214992B24B6A9B1A9BB28342FAD91A4A54
:101B30001C48936803400120034393604A6A1A4893
:101B4000174992B2436A9B1A9BB28B42FAD901227F
:101B500011498B681A42FCD0134A1148516A89B264
:101B6000536A5B1A9BB28342FAD90B4A0D499368B8
:101B70000B4004210B43936015B0F0BD0000014001
:101B8000FFFEFFFF000002404024014078050020D6
:101B90001C0002400827014000240140FFFF3FFED7
:101BA00087130000E8FFFF7F0010004070B5114C64
:101BB000050011492088114B48431E88FEF7B0FAF2
:101BC000831B9800C0180E4B00011988891BFEF773
:101BD00031FB1E302880638800206B8002235A006E
:101BE000A25A033380183E2BF9D13C21FEF798FA14
:101BF000A88070BD78050020E40C0000B8F7FF1F36
:101C0000C2F7FF1F0B4A0C4B012113600B4B1360F3
:101C100000235360D3681942FCD10221084B936022
:101C2000044AD3681942FCD1034B1360054B13607F
:101C30007047C04600300040CCCC00005555000035
:101C4000DC050000AAAA0000014A024B1A60704796
:101C5000AAAA0000003000400121114B11481A6867
:101C60000A431A605A6802405A601A680E480240D5
:101C70001A601A680D4802401A605A680C480240FF
:101C80000F205A60DA6A8243DA621A6B094802400E
:101C90001A635A6B8A435A6300229A607047C0469F
:101CA000001002400CB8FFF8FFFFF6FEFFFFFBFF3D
:101CB000FFFFC0FFACFEFFFF8022054B9200D968FA
:101CC00001200A43DA60DA6802490A40DA607047A4
:101CD00000100240FFFDFFFF002310B582B001930A
:101CE000836802000120DB072BD5D3682C490B4009
:101CF000D36093685B0747D480231B0201930120C4
:101D0000102406E0019B591E0191591E8B415B4234
:101D1000184093681C42F5D19368224902240B4075
:101D200002210B43936080231B02019306E0019B79
:101D3000591E0191591E8B415B42184093681C4209
:101D4000F5D117219368194228D19F245168A143E6
:101D500051601368144923431360D3680B40072173
:101D6000D36013699B009B08136153698B435361D4
:101D7000136A0E4919400E4B0B431362936ADB0C36
:101D8000DB04936202B010BD102193681942B3D1F5
:101D90009368044803400B439360ADE70020F1E7EC
:101DA0003FF2FFFFE8FFFF7F00023E8300F000F0FC
:101DB0000000FF0F8023DB05036000234360836086
:101DC000C36070478368020010B50020DB070ED4A3
:101DD0004C680B68D06823438C682343CC6809693E
:101DE00023430B430249014001200B43D36010BD44
:101DF0003CC2FEFF1B4B30B5C2188023D2001B0231
:101E00009340194C25681D40AB4215D0A04215D017
:101E10004D680B6820682B438D682B43CD682B439E
:101E20000D6949692B430B43104993409140884306
:101E300003430120236030BD0020FCE74D680B68A0
:101E400004682B438D682B43CD682B430D6949698A
:101E50002B430B430649934091408C43234303603B
:101E60000120E8E7E4FFFEBF1C0001407C3F0000CA
:101E70007E3F00002E4B10B598421AD001242D4B06
:101E80001A68A2431A6000221A605A609A60DA60E7
:101E900001292ED002291FD003293ED0042941D088
:101EA0000023052903D180235B024360012318002E
:101EB00010BD012914D002291ED0032929D00429DC
:101EC00029D001241B4B1A68A2431A6000221A6011
:101ED0005A609A60DA60E3E7102343600F3BE6E75D
:101EE000154B1A688A431A6000221A605A609A6079
:101EF000DA6001234360DAE7104B01241A68A24339
:101F00001A6000221A605A609A60DA600229C3D10E
:101F1000E2E70B4BF1E70B4BEFE780235B004360FD
:101F2000FF3BC4E780235B0143600123BFE7C0465A
:101F30000000024058000240080002401C0002401D
:101F40003000024044000240114B10B559180139CD
:101F50000B78D468C018936801682343146923433D
:101F60005469234394692343D4692343546A234324
:101F7000084C21400B4303605368C3601368126A26
:101F8000836043681B0C1B0413434360012010BD96
:101F9000002C00080F80FFFFF0B5DE464E46574686
:101FA0004546E0B50E688B46002E00D173E04B68C5
:101FB00000229C4601235B42634498460AE059464E
:101FC0000969C3684D431C402C43C460330001328F
:101FD000D34042D0012393403340F7D01D00046822
:101FE0005D43A1466C0064194F46E4432740B9465F
:101FF00067466F43BA464F4651460F434146076016
:102000000129DCD881688A4659468968694389462E
:10201000514621408A464946574639438160C16846
:102020008A46594609696943894651460C404946E2
:102030000C436146C4600229C8D1FF2B1ED8594603
:102040006D4349692C01641B4D43036A0132A3436C
:102050001D4333000562D340BCD14346012B06D853
:102060005A464368D268B34356431E434660012034
:102070003CBC90469946A246AB46F0BD59461B0A69
:102080005B435B4349691D01ED1A4B43446AAC4312
:10209000234343629AE74B68013B9846DDE7C0461D
:1020A0000C23164A70B5516805000B40082B10D15F
:1020B0005368DB031FD412480F24104BD96A5E68A3
:1020C00021400131FEF72CF8B60C34400234604355
:1020D00000E00C48094A286053680B491B061B0F97
:1020E000CB5CD84068605368084A5B055B0FD35CE3
:1020F000D840A86070BD0348DEE7C046001002402B
:1021000000093D0000127A00E82B0008F82B0008B7
:10211000030070B50020002B34D12A4A0333116B21
:102120000B40022B2FD0032B42D05168012B15D02E
:102130000C230B40082B2CD15368DB033FD52248DE
:102140000F24204BD96A5D6821400131FDF7E8FF7B
:102150000300AD0C2C40A01C58431BE00B330B407C
:10216000082B28D15368DB0327D418480F24154BBC
:10217000D96A5D6821400131FDF7D2FFAD0C2C40DA
:102180000234604370BD106A1840431E9841C0037A
:10219000F8E70D480B4B0E495A685B681206120FA0
:1021A0008A5C5B05D0400B4A5B0FD35CD840E9E703
:1021B00013689B07E6D50448E4E70348D6E70348DD
:1021C000BEE7C0460010024000127A0000093D0040
:1021D000E82B0008F82B0008254A036890421DD020
:1021E0008022D205904229D0224A904226D0224A0B
:1021F000904237D0214A904214D0214A904211D0C7
:10220000204A90420ED003608B68C3620B888362C1
:1022100001224369134343610120704770229343B5
:102220004A681343184A1340CA68134303608B6813
:10223000C3620B8883620B7C0363E9E770229343DC
:102240004A681343104A1340CA68134303608B68FB
:10225000C3620B8883620A4B9842ECD0094B9842C8
:10226000E9D0D5E7084A1340CA681343CBE7C04614
:10227000002C0140000400400020004000400140CC
:102280000044014000480140FFFCFFFF70B51029E9
:1022900000D183E05AD980235B0099422FD080235C
:1022A0005B01994278D1016A734E744C31400162EE
:1022B000036A4568C1692140146824020C437049CF
:1022C000194013691B030B435168334009030B4347
:1022D0006C49884200D19EE06B49884200D19AE067
:1022E0006A49884200D196E06949884200D192E06B
:1022F000D2684560C4610264036201204DE073242A
:10230000016A644E31400162036A4168C569A543B0
:1023100014682543604C1C4013691B022343546816
:10232000334024022343574CA0425FD0564CA04276
:102330005CD0564CA04259D0554CA04256D0D268E1
:102340004160C561C2630362012026E0012923D1F7
:102350007326036A8B430362036A45688469B44346
:10236000166834430226B343166933438B435168DE
:102370000B43444988426AD04349884267D0434965
:10238000884264D04249884261D0D2684560846105
:1023900042630362012000E0002070BD036A374DF4
:1023A0008B430362036A466884692C4015682D02DA
:1023B0002C432025AB431D0013691B012B438B438A
:1023C00051680D012F492B4388422AD02E4988425B
:1023D00027D02E49884224D02D49884221D0D26866
:1023E00046608461826303620120D6E72B4E2C4C49
:1023F0001E4053699B0233431F4E234094680E4096
:102400009169A402234309011D4C31432140D46941
:102410006601314393E723490D40916989010D43DA
:1024200066E780218B431D00536940399B012B4394
:102430008B4391688D011A492B430E409169174DCA
:10244000890031432940D569EE000E43C7E70821D2
:102450008B43190053699B000B4304218B43916804
:1024600089000B430B490D4091690D430A490D400A
:10247000D16949000D4388E7FFEFFFFFFF8CFFFFA5
:10248000FFDFFFFF002C01400040014000440140FD
:1024900000480140FFFEFFFFFFFDFFFFFFF7FFFFCA
:1024A000FFFBFFFFFFBFFFFF30B5102955D039D923
:1024B00080235B0099421CD080235B0199424AD162
:1024C000036A324CD568234003625368C4692B43C6
:1024D000956812682B432E4D1B0A2C402343C36181
:1024E0001203036A11432B4A13401943016201206E
:1024F00030BD036A284CD568234003625368C46921
:102500002B4395682B43FF251B0CAC432343C3612E
:102510001368046A1B021943204B234019430162CC
:102520000120E5E7012916D1036AD5688B430362D0
:10253000536884692B4395682B43FF251B0CAC43E0
:10254000234383611368046A19430A239C4321438C
:1025500001620120CCE70020CAE7036AD5688B43FB
:102560000362536884692B4395682B43084D1B0A0B
:102570002C40234383611368046A1B011943A02381
:102580009C43214301620120B2E7C046FFEFFFFFF9
:10259000FF00FFFFFF5FFFFFFFFEFFFFFFF5FFFFF5
:1025A000104A0300904210D00F4A0020934200D0FE
:1025B000704780220D4B9202196901300A431A615B
:1025C0001A690B490A401A61F2E78022074BD201CF
:1025D000D96801200A43DA60DA6806490A40DA60FD
:1025E000E6E7C046003801400044004000100240C9
:1025F000FFFFFDFFFFBFFFFF30B5036885B004009C
:102600000D00DB071DD44B68C96802680B432969BC
:102610000B43A9690B4321490A40134303604368F4
:102620001F4A1340AA681343436083681D4A13403E
:102630006A69134383601C4B984229D01B4B984214
:1026400002D0002005B030BD01A8FFF729FD039B93
:10265000002BF6D029680029F3D08022A869120245
:10266000904209D04808C018FDF75AFD0004000C3C
:10267000E060E3680120E5E758004B08C018FDF76B
:102680004FFD0B4B03400007400F1843E060F0E79D
:102690000020FFF73DFD0300DAE7C046F369FFFFC6
:1026A000FFCFFFFFFFFCFFFF003801400044004068
:1026B000F0FF0000014B18607047C0461800002072
:1026C00070B50D4E0D4D0024AD1BAD1005D0A3000F
:1026D000F35801349847A542F9D100F04DF9084E5E
:1026E000084D0024AD1BAD1005D0A300F3580134F4
:1026F0009847A542F9D170BD0C2C00080C2C00089D
:102700000C2C0008142C0008F0B505000F2A2FD956
:102710000B0003439B0734D116000C000300103E4E
:10272000350901352D01451927681F6067685F600D
:10273000A7689F60E7681034DF6010339D42F3D1D3
:102740000F239E431036851989191340032B1AD97C
:102750001E1F0023B4080134A400CF58EF500433E7
:10276000A342FAD10324A643331D2240C918ED1811
:10277000002A05D00023CC5CEC5401339342FAD1FB
:10278000F0BD0500F6E71A00F2E7C046F0B5830792
:1027900043D0541E002A3FD0CEB20200032502E0EF
:1027A0001A00013C38D3531C16702B42F8D1032C6D
:1027B0002AD9FF220A40150215432A0415430F2C7B
:1027C00014D927001A00103F3E09013636019E1920
:1027D000156055609560D56010329642F8D10F2291
:1027E00097431037DB191440032C0DD91A00271F0B
:1027F000BE080136B6009E1920C2B242FCD10322A7
:1028000097430437DB191440002C05D0C9B21C19BA
:10281000197001339C42FBD1F0BD14000300C6E7E0
:10282000034B10B5002B02D0024800F005F810BD94
:10283000000000004928000810B501000023002214
:10284000002000F01FF810BD70B5094B094CE41AC8
:10285000A41009D0084AA518AD00ED182B68013C5A
:102860009847043D002CF9D100F08CF870BDC046AB
:10287000142C0008182C0008FFFFFF3F7047C046CB
:102880007047C046F0B54E464546DE465746E0B571
:10289000364D83B00600286898460F009146FFF732
:1028A000EDFF334B1C68A4235B00E058002852D096
:1028B00043681F2B13DC5A1C0192002E28D1019A69
:1028C00002339B0042601F502868FFF7D9FF0020A9
:1028D00003B03CBC90469946A246AB46F0BD254BA2
:1028E000002B3DD0C820400000E000BF002837D0BA
:1028F000A42200235200A15843600160A05040323E
:10290000835004328350013301930023002ED6D02C
:102910009A00924682444A46882154466250C42214
:102920005200914681444A468739994012688B4645
:102930000A4394464A466146116084224146520049
:10294000A150022EBBD102005C468D32FF321168CD
:102950000C431460B3E720004D30FF30E050A7E790
:102960002868FFF78DFF01204042B1E748040020AE
:10297000082C000800000000F8B5C046F8BC08BCF0
:102980009E467047F8B5C046F8BC08BC9E467047E6
:102990000500050004000400040003000300030018
:1029A000020002000200010001000100010001001C
:1029B0000000000000000000000000000000000017
:1029C0000000000000000000000001000100010004
:1029D00001000100020002000200020003000300E7
:1029E00003000400040005000500060006000700BF
:1029F000070008000800090009000A000B000B008E
:102A00000C000D000D000E000F0010001000110052
:102A1000120013001400150015001600170018000E
:102A200019001A001B001C001D001E001F002000C2
:102A30002100220022002400250026002700280073
:102A400029002A002B002C002D002E002F00300022
:102A500031003200330033003400350036003700D7
:102A6000380039003A003B003C003D003E003F008A
:102A70004000420042004300440045004600470039
:102A8000480049004A004B004C004D004E004F00EA
:102A90004F005000510052005300540054005500A4
:102AA0005600570057005800590059005A005B0063
:102AB0005B005C005C005D005D005E005E005F002E
:102AC0005F00600060006100610061006200620000
:102AD00062006200630063006300630063006400DF
:102AE00064006400640064006400640064006400C6
:102AF00064006400640064006300630063006300BA
:102B000063006200620062006100610061006000B9
:102B1000600060005F005F005E005E005D005D00C1
:102B20005C005B005B005A005A00590058005800D6
:102B300057005600550055005400530052005200F3
:102B4000510050004F004E004D004C004C004B0017
:102B50004A00490048004700460045004400430041
:102B60004200410040003F003E003D003C003B0071
:102B70003A003900380037003600350034003300A1
:102B8000310030002F002E002D002C002B002A00D9
:102B90002900280027002600250024002300220009
:102BA000210020001F001E001D001C001B001A0039
:102BB0001900180018001700160015001400130063
:102BC00012001200110010000F000F000E000D0087
:102BD0000C000C000B000A000A00090009000800A4
:102BE00007000700060006000000000000000000CB
:102BF00001020304060708090000000001020304A3
:0C2C0000081C3044580000002000002098
:082C0C0021280008E90000087E
:042C1400C1000008F3
:102C1800010100000A0A0A00FA000000000204008C
:102C2800000002010102000000127A00000000000A
:102C3800000000000C03002074030020DC030020C7
:102C4800000000000000000000000000000000007C
:102C5800000000000000000000000000000000006C
:102C6800000000000000000000000000000000005C
:102C7800000000000000000000000000000000004C
:102C8800000000000000000000000000000000003C
:102C9800000000000000000000000000000000002C
:102CA800000000000000000000000000000000001C
:102CB800000000000000000000000000000000000C
:102CC80000000000000000000000000000000000FC
:102CD80000000000000000000100000000000000EB
:102CE8000E33CDAB34126DE6ECDE05000B000000B0
:102CF80000000000000000000000000000000000CC
:102D080000000000000000000000000000000000BB
:102D180000000000000000000000000000000000AB
:102D2800000000000000000000000000000000009B
:0C305800000000000000000070060020D6
:0400000508001435A6
:00000001FF
