:020000040800F2
:1000000000200020C90C0008AD0D0008AF0D00084D
:1000100000000000000000000000000000000000E0
:10002000000000000000000000000000B10D00080A
:100030000000000000000000B30D0008B50D00082E
:10004000190D0008190D0008190D0008190D0008F8
:10005000190D0008190D0008190D0008190D0008E8
:10006000190D0008250F0008190D0008190D0008CA
:10007000190D0008190D0008190D0008190D0008C8
:1000800069110008190D000800000000190D000892
:10009000190D0008190D0008190D0008190D0008A8
:1000A000190D0008190D0008190D0008190D000898
:1000B000190D000800000000190D000800000000E4
:1000C00010B5064C2378002B07D1054B002B02D02E
:1000D000044800E000BF0123237010BD4404002049
:1000E00000000000441A0008084B10B5002B03D094
:1000F0000749084800E000BF07480368002B00D10B
:1001000010BD064B002BFBD09847F9E7000000001C
:1001100048040020441A00084404002000000000A5
:1001200003460B437FD4002243088B4274D3030958
:100130008B425FD3030A8B4244D3030B8B4228D3F9
:10014000030C8B420DD3FF22090212BA030C8B421F
:1001500002D31212090265D0030B8B4219D300E0BF
:10016000090AC30B8B4201D3CB03C01A5241830B44
:100170008B4201D38B03C01A5241430B8B4201D3F4
:100180004B03C01A5241030B8B4201D30B03C01A1D
:100190005241C30A8B4201D3CB02C01A5241830A97
:1001A0008B4201D38B02C01A5241430A8B4201D3C6
:1001B0004B02C01A5241030A8B4201D30B02C01AF0
:1001C0005241CDD2C3098B4201D3CB01C01A524157
:1001D00083098B4201D38B01C01A524143098B42E0
:1001E00001D34B01C01A524103098B4201D30B01C9
:1001F000C01A5241C3088B4201D3CB00C01A5241EE
:1002000083088B4201D38B00C01A524143088B42B2
:1002100001D34B00C01A5241411A00D2014652414B
:10022000104670475DE0CA0F00D04942031000D36A
:100230004042534000229C4603098B422DD3030ABF
:100240008B4212D3FC22890112BA030A8B420CD3CF
:10025000890192118B4208D3890192118B4204D3F8
:1002600089013AD0921100E08909C3098B4201D378
:10027000CB01C01A524183098B4201D38B01C01AB2
:10028000524143098B4201D34B01C01A5241030929
:100290008B4201D30B01C01A5241C3088B4201D3D8
:1002A000CB00C01A524183088B4201D38B00C01A85
:1002B0005241D9D243088B4201D34B00C01A52415C
:1002C000411A00D20146634652415B10104601D3E9
:1002D0004042002B00D54942704763465B1000D373
:1002E000404201B5002000F005F802BD0029F8D019
:1002F00016E770477047C04610B51A4B1A4C0228D3
:1003000001D0052817D100221A7002280CD1174AF3
:100310001278002A19D101222270187800F0C8FE44
:10032000207800F0EBFE10BD05280ED10F4A1278A0
:10033000002A0AD0EFE7022901D0052907D10122BE
:100340001A700229E3D00529F0D00022E4E7022A3E
:1003500001D0052AE1D1022119708A42D7D0052A9D
:10036000F3D1E3E701000020000000206C0400202E
:10037000F0B5484B8BB01C68012C1CD10025102215
:10038000290006A81D6001F067FA434E3268B36F7A
:100390009B1A99091A09521A5008DB092900D21828
:1003A000C51AC318CF00F71B78683F68C01BA84266
:1003B00001D3904203D9394B18880BB0F0BD984255
:1003C00002D906AFC819C473013908001030E9D149
:1003D00006AAD27A06ABDB7B019206AAD2790199F2
:1003E000029206AA977B927A5940039206AA9279C2
:1003F000049206AA567B527A059206AA527994462E
:1004000006AA157B147A029A5140C8000399049AEF
:10041000794051402A008900014306A800796240D2
:10042000424060461143059A7240424052000A43DE
:1004300006A806A9C9788078C9008000084306A9E3
:10044000097852B2084306A949784900014349B2E4
:100450008A42B0D162469B027F023B431343002293
:1004600036023343ED011D43019BE4009B011D4314
:10047000039B5B011D43059B1B011D43029B2C43FA
:100480009B001C43049B5B001C43044B1C80044BDF
:100490001A8090E77C04002084040020600400207F
:1004A000060000200023044A1370044A13808022AF
:1004B000034B1A807047C0466C040020640400207F
:1004C0006204002070B5564B00283CD11C78002CEB
:1004D0000DD09024E4052568524E2E408025ED0273
:1004E000354325608025AD00A5628025A561187083
:1004F00000294CD1587800280ED09020C0050468FF
:10050000494D2540802464032C4304608024E4008A
:1005100084620124454884615970002A5DD199782C
:1005200000290ED09021C9050868414C0440802064
:10053000C0032043086080200001886202203B49FC
:1005400088619A7070BD01280CD11C78012CCED026
:100550009024E4052568334E2E4080252D03354335
:100560002560C2E70228C2D11C78022CBFD090249B
:10057000E40525682B4E2E408025ED02354325608D
:100580008025AD00A562813DFF3DA562AFE7012951
:100590000ED158780128BFD09025ED052868224C4F
:1005A0000440802080032043286020488161B3E715
:1005B0000229B1D158780228AED09020C005046835
:1005C000194D2540802464032C4304608024E400FA
:1005D00084620124154884629EE7012A0CD199782F
:1005E0000129AED09024E4052168114808408021FB
:1005F000090401432160A1E7022AA2D199780229C6
:100600009FD09021C9050868094C04408020C00390
:100610002043086080200001886204498A6290E7D4
:1006200002000020FFFFF3FFFFFFCFFF00040048A0
:10063000FFFF3FFFF0B597B000F070FB00F0BCFB90
:10064000FFF730FFE02390241B01002502260493CE
:100650000323E40504A92000069305960795089551
:10066000099600F069FE802304A9049320007F3BD3
:10067000059300F061FE0323754F04A9380004932D
:1006800000F05AFE2268734B1A408023DB021343AA
:10069000236080239B00A362813BFF3BA361226810
:1006A0006D4B1A4080235B03134323608023DB00E0
:1006B000A3620123BB612268684B1A408023DB03DD
:1006C0001343236080231B01A362BE6100F098FBEB
:1006D00000F05CFC280000F099FC33230AA90A937F
:1006E0002000303B0B930C930E950F9500F024FEE9
:1006F00000F094FC042310A910932000013B1293F6
:1007000011961496159600F017FE00F0A5FB2A002E
:100710000121280000F094F92A002900280000F0A7
:100720008FF901222900280000F08AF94C4800F0D6
:1007300087FB484B3C000293474B484F039300F024
:1007400079FB484D484A2B880190934201D80133E8
:100750002B80FFF70DFEFA212A88030089008A42C8
:1007600044D10020414B187000F050FC2B88012B25
:1007700012D83E4D2B78002B0ED1012208201100FB
:1007800000F05EF93A4800F05BFB012208201100FE
:1007900000F056F901232B70002000F0C9FC9023D3
:1007A000DB051968029A11408022D2020A431A60BE
:1007B000802292009A62813AFF3A9A611968039AFC
:1007C0001140802252030A431A608022D2009A62AA
:1007D0000122A26180221968D20339400A431A60BB
:1007E000802212019A620223A36125E02F28BDD93D
:1007F000204E3288632A06D88022031C5200904281
:1008000000D9131C9BB2194A1278012A04D15B0843
:1008100098B2023000F0FAFB174D2B88C82B13D981
:10082000012000F085FC0023144A338013602B80E4
:10083000134B187800F09EF800F0FCFA019BC01AE8
:1008400080B27C28F8D97AE701332B80F4E7C046E0
:1008500000040048FFFFF3FFFFFFCFFFFFFF3FFF54
:10086000FFFF000006000020E703000068040020EE
:10087000FF8F0000660400206A040020740400203A
:100880006C040020F7B5304D00902B88019300F0E8
:1008900047FC2E4F3B7883423BD1A0232C4E5B007C
:1008A00032682C4C9A4228D800202B4B188000F03C
:1008B0003FFC2388294F0F2B2CD832680199130154
:1008C0009B1A009A0120521A92B29B182449254A79
:1008D000098812881B0933605A434B43920A9B0ACA
:1008E0009B183A60204A136000F022FC23881F4ABC
:1008F00093420ED8013323800BE023880A20632B18
:1009000000D9032000F09CFA00F00AFC3B788342F7
:10091000CAD0F7BD6B461B882B8000F01FFC2B88CC
:10092000C01A3B6880B29842F7D3114B187800F098
:1009300021F800F013FC2B88C01A0B4B80B21B6807
:100940009842F6D3B9E7C0467804002000000020A2
:1009500074040020660400206A0400208004002043
:10096000620400206404002070040020E7030000FB
:100970006C040020002310B52F4CE356002836D11C
:100980005A1C22DA07335BB223700123E3565A1C48
:1009900021DA07335BB263700223E3565A1C20DA74
:1009A00007330222012100205BB2A370A256234B21
:1009B000615620569A5C595C185CFFF783FDA2785B
:1009C00061782078FFF798FC10BD042B01DD053B12
:1009D000D9E70133D7E7042B01DD053BDAE7013323
:1009E000D8E7042B01DD053BDBE70133D9E7002B1A
:1009F0000FDC05335BB223700123E356002B0EDCC2
:100A000005335BB263700223E356002B0DDC053324
:100A1000C7E7062B01DD073BECE7013BEAE7062BC6
:100A200001DD073BEDE7013BEBE7062B01DD073B73
:100A3000B7E7013BB5E7C046080000200B000020E7
:100A4000F0B58BB0069000200891099200F070FB81
:100A500090238022DB051968964ED20231400A436A
:100A60001A60802292009A62813AFF3A9A6280224A
:100A70001968914D520329400A431A608022D2001E
:100A80009A6201228D4C8E4FA26280221968D20395
:100A900039400A431A60802212019A620223002020
:100AA000A36200F0B3FA089B07960295260004970C
:100AB000002B02D11E2000F0A9FA00230193019B14
:100AC000022B00D9B9E0089B002B05D00720019B21
:100AD00058430F3000F09AFA002390240593E40560
:100AE000079A236813408022D20213432360802395
:100AF0009B00A362813BFF3BA36100F09BF97F2336
:100B0000059A18406F4BD35A0393312B00D99DE0BF
:100B100080252368049AED0313402B432360802330
:100B200002271B01A362B7625F2812D9049B2268C7
:100B30001A4080231B0413432360B76100F080F93F
:100B40002368049A13401D4380231B012560A36280
:100B5000B762029B226806991A4080239B031343C5
:100B6000236001230398B361FFF7DAFA80B200F043
:100B700067F93220039B0699C01AFFF7D1FA236860
:100B8000079A802713408022D202134323608023D8
:100B90009B00A362813BFF3BA3622368029AFF0391
:100BA000134080225203134323608023DB00A3629F
:100BB0000123B362049A2368022513403B43236058
:100BC00080231B01A36280B2B56200F039F9059B56
:100BD0005B1905939623059A9B009A4200D07FE704
:100BE000019B01330193062B00D068E7002000F041
:100BF0000DFA2368079A13408022D2021343236020
:100C000080239B00A362813BFF3BA3622368029A7F
:100C1000134080225203134323608023DB00A3622E
:100C20000123B3622368049A13401F4380231B01EE
:100C30002760A362B5620BB0F0BD099B002B00D109
:100C40004AE7019BD800181A393043E7802523680A
:100C5000029A6D0313402B43236080230127DB009E
:100C6000A362B7625F2812D9029B22681A408023D0
:100C70009B0313432360B76100F0E2F82368029AF4
:100C800013401D438023DB002560A362B762079BEE
:100C9000226803981A4080231B0313432360802398
:100CA0000699A3613238FFF73BFA80B200F0C8F82A
:100CB00064205FE7FFFFF3FFFFFFCFFF0004004862
:100CC000FFFF3FFF5C1A00080D488546002103E046
:100CD0000C4B5B58435004310B480C4B42189A4262
:100CE000F6D30B4A02E0002313600432094B9A4208
:100CF000F9D300F049FA00F049FDFFF79BFCFEE74D
:100D000000200020CC1C000800000020440400202B
:100D100044040020A8050020FEE7000010B500F004
:100D200033FA01221C490B68934313430B601B4B9E
:100D300019680A431A60022219681142FCD05A68E5
:100D400017491140A02292030A430F215A60DA6A20
:100D50008A43DA628022196852040A431A608022A8
:100D6000920419681142FCD0F0215A688A435A60F3
:100D70005A68ED398A43110002220A430C215A6055
:100D80005A680A40082AFBD15A68064906480A40B0
:100D90005A6000F0F5FC10BD002002400010024037
:100DA000FFFFC2FFFFF8FFFF006CDC027047FEE7A9
:100DB00070477047704700000D4B0E48596984B06A
:100DC000014359615A6902400392039A0A48D9695A
:100DD0000143D961DA69094902400292029A9A698B
:100DE0000A439A619B690B400193019B04B07047D1
:100DF000001002400100060013000200014A060034
:100E00002F2310B586B001A90B80084B084C8B60CE
:100E100000232000CB600B744B6000F0E9FA012343
:100E200022681343236006B010BDC046FFFF0000D8
:100E300000100040014B586A80B27047001000401B
:100E4000044A516A89B2536A5B1A9BB28342FAD34D
:100E50007047C04600100040F0B5802501230026F1
:100E6000012495B0ED0505A95B4228000E808B603A
:100E7000CE600E744E6000F0BBFA2B6880212343D5
:100E80002B600A23019380235B02029304231F4FEC
:100E900001AA490028000493039600F0FBFB2100FF
:100EA000380000F0DDF91A4B80220A93194B0F929B
:100EB0000B93202380220C960D930E96129380267E
:100EC000C0231201B60011929B010AAA210038002A
:100ED0001393109600F008FAC2200F4B80001A58A6
:100EE0000E491140802212020A431A5002221E604B
:100EF0000B4B19680A4380211A60EA6809010A430A
:100F0000EA601A6814431C6015B0F0BD000002408E
:100F10003C0000400405002000E100E0FF00FFFF6E
:100F20000800024070B5022413480368234212D01F
:100F3000124944608A680D68CB6F551B11226A43C1
:100F40000E689B1B9A4207D980220D4800F042FC94
:100F500001220C4B1A6070BD012120250A4B1A6832
:100F60008A431A605A68120C12042A435A60446079
:100F70001A6811431960EEE70000024004050020E2
:100F8000840400207C04002008000240802370B507
:100F900000251D4C8EB001A90126DB0020000D802C
:100FA0008B60CD600D744D6000F022FA602306AABC
:100FB0003100200006930796089609950A950C952E
:100FC0000B950D9500F064FA06AA1021200000F0A0
:100FD0005FFA802106AA4900200000F059FA80211A
:100FE00006AA4901200000F053FAFF22636C9343E4
:100FF000636423681E4380232660626C1B021343D4
:1010000063640EB070BDC046002C0140024B5863B3
:101010009863D86318647047002C0140042370B5AE
:1010200090B00A932C330C93C023002401261C4D4E
:101030000AA9DB0028000E930B940D940F9400F086
:10104000D3F82B6805A933432B600523154D0B807E
:10105000154B28008B60CC600C744C6000F0C8F914
:101060002B6801AA33432B600A23019380233100AC
:101070005B02280002930394049400F00BFB02230C
:10108000C421EA6809481343FF22EB6089004358F2
:1010900093431A0040231343435010B070BDC04621
:1010A0001C00014000040040FFFF000000E100E0E0
:1010B00000280BD170220E490B6893431A0050236D
:1010C00013430B600B4A0C4B1A617047012806D181
:1010D000702207490B6893431A006023F0E7022847
:1010E000F0D1702202490B6893431A004023E7E7CE
:1010F0001C000140FDFF0000000400400A21064BD7
:101100001A6A8A43002803D11A62044A1A61704796
:10111000110002220A43F7E700040040FDFF00002F
:101120000120024B1B689B0B984370471C00014039
:1011300080235B02012805D1044A05491161054A53
:1011400013607047044AD367FBE7C04600040040C1
:10115000FDFF000000E100E004E100E0014B586AFF
:1011600080B2704700040040054B10B51A69920721
:1011700005D5044A1A61586B80B2FFF783FB10BD96
:1011800000040040FDFF00000121114B11481A68C6
:101190000A431A605A6802405A601A680E480240B0
:1011A0001A601A680D4802401A605A680C480240DA
:1011B0000F205A60DA6A8243DA621A6B09480240E9
:1011C0001A635A6B8A435A6300229A607047C0467A
:1011D000001002400CB8FFF8FFFFF6FEFFFFFBFF18
:1011E000FFFFC0FFACFEFFFF194B70B5C218802394
:1011F000D2001B029340174C002526681E40B342C4
:1012000014D00B684E688D68A04211D133432B4334
:10121000CD6804682B430D6949692B430B430E4984
:10122000934091408C43234303600125280070BD07
:1012300033432B43CD6820682B430D6949692B4309
:101240000B43064993409140884303432360ECE7F6
:10125000E4FFFEBF1C0001407E3F00007C3F000019
:101260001B4B30B50400984207D1012914D0022944
:1012700014D0032914D0042914D0164A01250020C3
:101280001368AB431360106050609060D060A94257
:101290000AD10800616030BD0F4AEFE70F4AEDE761
:1012A0000F4AEBE70F4AE9E71023022903D003298D
:1012B00004D180235B0063602800ECE7042902D19D
:1012C00080235B01F7E70529E5D180235B02F2E784
:1012D0000000024058000240080002401C0002408A
:1012E0003000024044000240114B10B5591801393A
:1012F0000B78D468C01893680168234314692343AA
:101300005469234394692343D4692343546A234390
:10131000084C21400B4303605368C3601368126A92
:10132000836043681B0C1B0413434360012010BD02
:10133000B41C00080F80FFFFF0B500260F6885B0D1
:101340003B00F3400CD14B68013B012B05D8CA6828
:1013500043687A43BB4313434360012005B0F0BDAB
:101360000123B3403B4036D04A68032501921A005E
:101370005A435543ED43046802952C40019D554363
:101380002C430460019C013C012C0AD88468A446CB
:1013900065468C6854430394029C2540039C2C436F
:1013A0008460C468A44665460C6954430394029C57
:1013B0002C402500039C2543019CC560022C0AD1CA
:1013C0004C69FF2B09D80F25524355436243036AEA
:1013D000AB43134303620136B2E70F221B0A5B43A0
:1013E0005B435A436343456A95431D434562F2E7B5
:1013F000030002681F4810B5834206D08024E4052C
:10140000A34202D01C4CA3420CD17024A2434C68CE
:101410002243834212D08024E405A3420ED0164C0E
:10142000A3420BD0154CA34208D0154CA34205D0C3
:10143000144CA34202D0144CA34203D1134C2240BB
:10144000CC6822431A608A68DA620A889A62834208
:1014500008D00B4A934205D00A4A934202D00A4A66
:10146000934201D10A7C1A6301205A6902435A61EE
:1014700010BDC046002C0140000400400020004088
:10148000004001400044014000480140FFFCFFFFD4
:1014900070B510296FD003D8012935D00020A7E0FE
:1014A00080235B00994200D1A3E080235B01994235
:1014B000F4D1036A6B4E6C4D33400362036A41689A
:1014C000C4692C4015682D022C43684D1D401369DA
:1014D0001B032B43556833402D032B43644DA84217
:1014E00008D0644DA84205D0634DA84202D0634D98
:1014F000A84204D1624D29409569AD012943D268C3
:101500004160C461026434E07326036A8B43036262
:10151000036A44688569B543166835430226B343B8
:10152000166933438B4351680B435149884208D0B5
:101530005049884205D05049884202D04F498842DC
:1015400013D108218B43190053699B000B430421DD
:101550008B43916889000B434A490C4091690C43C5
:1015600049490C40D16949000C43D2684460856107
:10157000426303623BE0036A3B4E8B430362056AAE
:101580004368846934401668360234432026B543E4
:101590002E0015692D0135438D43290055682D0115
:1015A0002943334DA84208D0324DA84205D0324DD0
:1015B000A84202D0314DA84214D18025A9430D0084
:1015C0005169890129434025A9439568AD01294303
:1015D0002E4D1D4093699B002B432D4D2B40D5690B
:1015E000ED002B434360D368846183630162012073
:1015F00070BD7325036A234E33400362016A43685A
:10160000C469AC4315682C431F4D0D401169090294
:101610002943556831402D022943154DA84208D071
:10162000144DA84205D0144DA84202D0134DA84233
:1016300013D1174D0D40516989022943134D29409B
:101640009568AD022943074D1D4093691B012B434B
:10165000064D2B40D5696D012B434360D368C461AF
:10166000C363C3E7FFEFFFFFFF8CFFFFFFDFFFFF59
:10167000002C01400040014000440140004801406E
:10168000FFBFFFFFFFFEFFFFFFFDFFFFFFFBFFFFB1
:10169000FFF7FFFF30B5102939D003D801291FD03B
:1016A000002033E080235B00994247D080235B0118
:1016B0009942F5D1036A2D4CD568234003625368E3
:1016C000C4692B43956812682B43294D1B0A2C4093
:1016D00023431203C361036A1143264A134042E0C5
:1016E000036AD5688B430362536884692B4395680A
:1016F0002B43FF251B0CAC432343836113680A2251
:10170000046A0B43944323430362012030BD036A00
:10171000D5688B430362536884692B4395682B43D8
:10172000134D1B0A2C40234383611368046A1B0179
:101730001943A0239C4321430162E6E7036A0E4C50
:10174000D568234003625368C4692B4395682B43D3
:10175000FF251B0CAC432343C3611368046A1B02BF
:101760001943064B23401943E6E7C046FFEFFFFF4E
:10177000FF00FFFFFF5FFFFFFFFEFFFFFFF5FFFF23
:10178000014B18607047C0461400002070B50D4E24
:101790000D4D0024AD1BAD1005D0A300F35801344E
:1017A0009847A542F9D100F04DF9084E084D0024A4
:1017B000AD1BAD1005D0A300F35801349847A542E6
:1017C000F9D170BDC01C0008C01C0008C01C000876
:1017D000C81C0008F0B505000F2A2FD90B000343E1
:1017E0009B0734D116000C000300103E350901356B
:1017F0002D01451927681F6067685F60A7689F60B3
:10180000E7681034DF6010339D42F3D10F239E430D
:101810001036851989191340032B1AD91E1F00236E
:10182000B4080134A400CF58EF500433A342FAD1D6
:101830000324A643331D2240C918ED18002A05D001
:101840000023CC5CEC5401339342FAD1F0BD050087
:10185000F6E71A00F2E7C046F0B5830743D0541EFE
:10186000002A3FD0CEB20200032502E01A00013C5C
:1018700038D3531C16702B42F8D1032C2AD9FF22DF
:101880000A40150215432A0415430F2C14D92700CA
:101890001A00103F3E09013636019E191560556049
:1018A0009560D56010329642F8D10F2297431037D9
:1018B000DB191440032C0DD91A00271FBE0801366E
:1018C000B6009E1920C2B242FCD1032297430437CE
:1018D000DB191440002C05D0C9B21C191970013352
:1018E0009C42FBD1F0BD14000300C6E7034B10B5CA
:1018F000002B02D0024800F005F810BD00000000E7
:101900001519000810B5010000230022002000F086
:101910001FF810BD70B5094B094CE41AA41009D08A
:10192000084AA518AD00ED182B68013C9847043D06
:10193000002CF9D100F08CF870BDC046C81C00081E
:10194000CC1C0008FFFFFF3F7047C0467047C046F1
:10195000F0B54E464546DE465746E0B5364D83B0B7
:101960000600286898460F009146FFF7EDFF334BBD
:101970001C68A4235B00E058002852D043681F2B4A
:1019800013DC5A1C0192002E28D1019A02339B00CD
:1019900042601F502868FFF7D9FF002003B03CBC0D
:1019A00090469946A246AB46F0BD254B002B3DD054
:1019B000C820400000E000BF002837D0A422002348
:1019C0005200A15843600160A0504032835004325D
:1019D0008350013301930023002ED6D09A00924603
:1019E00082444A46882154466250C422520091469D
:1019F00081444A468739994012688B460A43944687
:101A00004A4661461160842241465200A150022E8E
:101A1000BBD102005C468D32FF3211680C4314606A
:101A2000B3E720004D30FF30E050A7E72868FFF70C
:101A30008DFF01204042B1E740040020BC1C00089B
:101A400000000000F8B5C046F8BC08BC9E467047D0
:0C1A5000F8B5C046F8BC08BC9E467047C4
:101A5C00050005000400040004000300030003005B
:101A6C00020002000200010001000100010001005F
:101A7C00000000000000000000000000000000005A
:101A8C000000000000000000000001000100010047
:101A9C00010001000200020002000200030003002A
:101AAC000300040004000500050006000600070002
:101ABC00070008000800090009000A000B000B00D1
:101ACC000C000D000D000E000F0010001000110096
:101ADC001200130014001500150016001700180052
:101AEC0019001A001B001C001D001E001F00200006
:101AFC0021002200220024002500260027002800B7
:101B0C0029002A002B002C002D002E002F00300065
:101B1C00310032003300330034003500360037001A
:101B2C00380039003A003B003C003D003E003F00CD
:101B3C00400042004200430044004500460047007C
:101B4C00480049004A004B004C004D004E004F002D
:101B5C004F005000510052005300540054005500E7
:101B6C005600570057005800590059005A005B00A6
:101B7C005B005C005C005D005D005E005E005F0071
:101B8C005F00600060006100610061006200620043
:101B9C006200620063006300630063006300640022
:101BAC006400640064006400640064006400640009
:101BBC0064006400640064006300630063006300FD
:101BCC0063006200620062006100610061006000FD
:101BDC00600060005F005F005E005E005D005D0005
:101BEC005C005B005B005A005A005900580058001A
:101BFC005700560055005500540053005200520037
:101C0C00510050004F004E004D004C004C004B005A
:101C1C004A00490048004700460045004400430084
:101C2C004200410040003F003E003D003C003B00B4
:101C3C003A003900380037003600350034003300E4
:101C4C00310030002F002E002D002C002B002A001C
:101C5C00290028002700260025002400230022004C
:101C6C00210020001F001E001D001C001B001A007C
:101C7C0019001800180017001600150014001300A6
:101C8C0012001200110010000F000F000E000D00CA
:101C9C000C000C000B000A000A00090009000800E7
:101CAC000700070006000600081C3044580000001E
:041CBC0018000020EC
:081CC000ED180008E90000081E
:041CC800C10000084F
:101CCC0001010A0A0A00FA000002040000020101E4
:101CDC000200000000127A00000000000403002043
:101CEC006C030020D4030020000000000000000062
:101CFC0000000000000000000000000000000000D8
:101D0C0000000000000000000000000000000000C7
:101D1C0000000000000000000000000000000000B7
:101D2C0000000000000000000000000000000000A7
:101D3C000000000000000000000000000000000097
:101D4C000000000000000000000000000000000087
:101D5C000000000000000000000000000000000077
:101D6C000000000000000000000000000000000067
:101D7C000000000000000000000000000000000057
:101D8C0001000000000000000E33CDAB34126DE6F4
:101D9C00ECDE05000B00000000000000000000005D
:101DAC000000000000000000000000000000000027
:101DBC000000000000000000000000000000000017
:101DCC000000000000000000000000000000000007
:101DDC0000000000000000000000000000000000F7
:04210C008405002026
:0400000508000CC91A
:00000001FF
