:020000040800F2
:1000000000200020C5070008A9080008AB08000868
:1000100000000000000000000000000000000000E0
:10002000000000000000000000000000AD08000813
:100030000000000000000000AF080008B108000840
:10004000150800081508000815080008150800081C
:10005000150800081508000815080008150800080C
:100060001508000815080008210A000815080008EE
:1000700015080008150800081508000815080008EC
:10008000690C0008150800080000000015080008A9
:1000900015080008150800081508000815080008CC
:1000A00015080008150800081508000815080008BC
:1000B00015080008000000001508000800000000F6
:1000C00010B5064C2378002B07D1054B002B02D02E
:1000D000044800E000BF0123237010BD4404002049
:1000E0000000000044150008084B10B5002B03D099
:1000F0000749084800E000BF07480368002B00D10B
:1001000010BD064B002BFBD09847F9E7000000001C
:1001100048040020441500084404002000000000AA
:1001200010B51A4B1A4C022801D0052817D100220D
:100130001A7002280CD1174A1278002A19D101220C
:100140002270187800F034FD207800F057FD10BDC3
:1001500005280ED10F4A1278002A0AD0EFE70229AB
:1001600001D0052907D101221A700229E3D00529FF
:10017000F0D00022E4E7022A01D0052AE1D10221D1
:1001800019708A42D7D0052AF3D1E3E70100002095
:100190000000002068040020F0B5484B8BB01C68BC
:1001A000012C1CD100251022290006A81D6001F099
:1001B000D3F8434E3268B36F9B1A99091A09521A41
:1001C0005008DB092900D218C51AC318CF00F71B45
:1001D00078683F68C01BA84201D3904203D9394BCD
:1001E00018880BB0F0BD984202D906AFC819C47385
:1001F000013908001030E9D106AAD27A06ABDB7BC0
:10020000019206AAD2790199029206AA977B927A64
:100210005940039206AA9279049206AA567B527A12
:10022000059206AA5279944606AA157B147A029A78
:100230005140C8000399049A794051402A0089002E
:10024000014306A800796240424060461143059A86
:100250007240424052000A4306A806A9C978807835
:10026000C9008000084306A9097852B2084306A9CC
:1002700049784900014349B28A42B0D162469B02A3
:100280007F023B431343002236023343ED011D43FB
:10029000019BE4009B011D43039B5B011D43059BE8
:1002A0001B011D43029B2C439B001C43049B5B00D2
:1002B0001C43044B1C80044B1A8090E774040020FC
:1002C0007C040020600400200600002070B5584B1C
:1002D00000283DD11C78002C0ED09024E405256820
:1002E000544E2E4080256D023543256080256D00DB
:1002F000A562514CFF3DA561187000294ED1587878
:1003000000280ED09020C00504684C4D2540802464
:10031000E4022C4304608024A40084621024464834
:1003200084615970002A5ED1997800290ED09021FD
:10033000C9050868424C04408020400320430860FF
:100340008020C000886220203B4988619A7070BD7F
:1003500001280ED11C78012CCED09026F6053468E9
:10036000344D25408024A4022C433460324CA061DB
:10037000C2E70228C0D11C78022CBDD09024E4052D
:1003800025682C4E2E4080256D0235432560802542
:100390006D00A562284CFF3DA562ADE701290CD197
:1003A00058780128BDD09025ED052868234C0440DD
:1003B0008020000320432860B0E70229B1D158789B
:1003C0000228AED09020C00504681C4D2540802432
:1003D000E4022C4304608024A4008462F13C1648AB
:1003E000FF3C84629DE7012A0CD199780129ADD0A8
:1003F0009024E405216812480840802189030143C4
:100400002160A0E7022AA1D1997802299ED09021EB
:10041000C90508680A4C0440802040032043086056
:100420008020C00088622020034988628EE7C04691
:1004300002000020FFFFFCFF00040048FFFFF3FF65
:10044000FFFFCFFFF0B597B000F0E6F900F032FA09
:10045000E023DB000493902402230026E4050593A7
:100460000133069304A9013B200001270993079655
:10047000089600F0E1FC3123634D04A9280005979C
:10048000049300F0D9FC2268604B1A4080235B0281
:100490001343236080235B00A3628023AF61226843
:1004A0005B4FDB023A401343236080239B00A3622F
:1004B000F13BFF3BAB612268564B1A4080235B0344
:1004C000134323608023DB00A3622023AB6100F091
:1004D00015FA00F0DBFA300000F018FB3C230AA903
:1004E0000A932000393B0B930C930E960F9600F065
:1004F000A3FC00F013FB08231093063B1193013378
:10050000129310A9013B28001493159300F094FC5A
:1005100000F020FA3D4B029701933E4B039300F00D
:1005200007FAF4223C4EFF3233880090934201D800
:1005300001333380FFF730FEFA213288030049008F
:100540008A4233D10020354B187000F0DFFA33882F
:10055000012B02D80122314B1A70002000F068FBF9
:100560002268019B1A4080235B021343236080238F
:100570005B00A362FF3BAB612268029B1A408023B1
:10058000DB021343236080239B00A362F13BFF3B0C
:10059000AB612268039B1A4080235B0313432360F3
:1005A0008023DB00A3622023AB6122E02F28CED979
:1005B0001B4F3A88632A06D88022031C52009042BF
:1005C00000D9131C9BB2154A1278012A03D15B088B
:1005D00098B200F09BFA134E3388C82B11D9012032
:1005E00000F026FB00233B8033800F4B187800F08F
:1005F00083F800F09DF9009BC01A80B27C28F8D9DE
:100600008DE701333380F4E700040048FFFFFCFF6F
:10061000FFFFF3FFFFFFCFFF060000206404002070
:10062000620400206604002068040020F7B5294E0B
:1006300004003388019300F0F3FA274F3B7883429C
:100640002DD1264D0A202B88632B00D9032000F0E2
:1006500075F900F0E5FA3B78834220D10020204B69
:10066000188000F0E5FA2B881E4F0F2B18D81E4A71
:10067000012011680B015B1A0199641AA4B21C19BC
:1006800023091360A3099BB2E4093B801C19174B93
:100690001C8000F0CDFA2B88154A934217D9F7BD7C
:1006A000348000F0DBFA3388C01A3B8880B2834282
:1006B000F7D8104B187800F01FF800F0CFFA338805
:1006C000C01A0A4B80B21B888342F6D8CFE70133A9
:1006D0002B80E4E77004002000000020620400206A
:1006E00066040020780400206C0400206A040020C6
:1006F000E703000068040020002310B52F4CE356E8
:10070000002836D15A1C22DA07335BB2237001234A
:10071000E3565A1C21DA07335BB263700223E356B7
:100720005A1C20DA07330222012100205BB2A37099
:10073000A256234B615620569A5C595C185CFFF711
:10074000C5FDA27861782078FFF7EAFC10BD042B84
:1007500001DD053BD9E70133D7E7042B01DD053B7C
:10076000DAE70133D8E7042B01DD053BDBE7013392
:10077000D9E7002B0FDC05335BB223700123E3566E
:10078000002B0EDC05335BB263700223E356002BB3
:100790000DDC0533C7E7062B01DD073BECE7013B2A
:1007A000EAE7062B01DD073BEDE7013BEBE7062B14
:1007B00001DD073BB7E7013BB5E7C0460800002075
:1007C0000B0000200D488546002103E00C4B5B58D0
:1007D000435004310B480C4B42189A42F6D30B4A53
:1007E00002E0002313600432094B9A42F9D300F06F
:1007F0004BFA00F04BFDFFF725FEFEE7002000203E
:100800007415000800000020440400204404002067
:10081000A0050020FEE7000010B500F035FA012227
:100820001C490B68934313430B601B4B19680A4325
:100830001A60022219681142FCD05A681749114007
:10084000A02292030A430F215A60DA6A8A43DA62CD
:100850008022196852040A431A608022920419689F
:100860001142FCD0F0215A688A435A605A68ED3927
:100870008A43110002220A430C215A605A680A4036
:10088000082AFBD15A68064906480A405A6000F017
:10089000F7FC10BD0020024000100240FFFFC2FF25
:1008A000FFF8FFFF006CDC027047FEE770477047FF
:1008B000704700000D4B0E48596984B001435961DF
:1008C0005A6902400392039A0A48D9690143D961DF
:1008D000DA69094902400292029A9A690A439A61C6
:1008E0009B690B400193019B04B0704700100240CC
:1008F0000100060013000200014A06002F2310B574
:1009000086B001A90B80084B084C8B6000232000A7
:10091000CB600B744B6000F0EBFA012322681343A9
:10092000236006B010BDC046FFFF0000001000406D
:10093000014B586A80B2704700100040044A516A67
:1009400089B2536A5B1A9BB28342FAD37047C0469E
:1009500000100040F0B5802501230024012695B049
:10096000ED0505A95B4228000C808B60CC600C74FF
:100970004C6000F0BDFA2B68234F33432B600A23F1
:10098000019380235B020293042301AA1021280013
:100990000493039400F0FEFB0321380000F0E0F91B
:1009A0001A4B80220A931A4B0F920B932023813209
:1009B000FF32109280220D931293C02312011192E4
:1009C0009B010AAA0321380013930C940E9400F0A3
:1009D0000BFAC2200F4B80001A580F491140802299
:1009E00012040A431A5080220221D2001A600B4BD3
:1009F000186801431960E9680A43EA601A681643F7
:100A00001E6015B0F0BDC046000002403800004036
:100A1000FC04002000E100E0FFFF00FF3000024086
:100A200070B580241448A4000368234212D01349EF
:100A300044608A680D68CB6F551B11226A430E68AB
:100A40009B1B9A4207D980220D4800F043FC0122EB
:100A50000C4B1A6070BD012120250B4B1A688A438C
:100A60001A605A68120C12042A435A6044601A68C9
:100A700011431960EEE7C04600000240FC0400206C
:100A80007C0400207404002030000240802370B5F4
:100A900000251D4C8EB001A90126DB0020000D8031
:100AA0008B60CD600D744D6000F022FA602306AAC1
:100AB0003100200006930796089609950A950C9533
:100AC0000B950D9500F064FA06AA1021200000F0A5
:100AD0005FFA802106AA4900200000F059FA80211F
:100AE00006AA4901200000F053FAFF22636C9343E9
:100AF000636423681E4380232660626C1B021343D9
:100B000063640EB070BDC046002C0140024B5863B8
:100B10009863D86318647047002C0140042370B5B3
:100B200090B00A932C330C93C023002480260AA98A
:100B3000DB001A480E930B940D940F9400F0D4F838
:100B4000174A7602136805A9334313600523154D30
:100B50000B80154B28008B60CC600C744C6000F04F
:100B6000C7F901212B6801AA0B432B600A23280037
:100B7000019302960394049400F00CFB0223C42119
:100B8000EA680A481343FF22EB6089004358934305
:100B90001A0040231343435010B070BD1E000140A3
:100BA0001C00014000040040FFFF000000E100E0E5
:100BB00000280BD10D490E4A0B681A408023DB0335
:100BC00013430B600B4A0C4B1A617047012805D187
:100BD0000649074A0B681A40C023F0E70228F1D102
:100BE0000249034A0B681A40A023E8E71C000140B1
:100BF000FFFF8FFFFDFF0000000400400A21064BAD
:100C00001A6A8A43002803D11A62044A1A6170479B
:100C1000110002220A43F7E700040040FDFF000034
:100C20000120024B1B689B0F984370471C0001403A
:100C300080235B02012805D1044A05491161054A58
:100C400013607047044AD367FBE7C04600040040C6
:100C5000FDFF000000E100E004E100E0014B586A04
:100C600080B2704700040040054B10B51A69920726
:100C700005D5044A1A61586B80B2FFF7D7FC10BD46
:100C800000040040FDFF00000121114B11481A68CB
:100C90000A431A605A6802405A601A680E480240B5
:100CA0001A601A680D4802401A605A680C480240DF
:100CB0000F205A60DA6A8243DA621A6B09480240EE
:100CC0001A635A6B8A435A6300229A607047C0467F
:100CD000001002400CB8FFF8FFFFF6FEFFFFFBFF1D
:100CE000FFFFC0FFACFEFFFF194B70B5C218802399
:100CF000D2001B029340174C002526681E40B342C9
:100D000014D00B684E688D68A04211D133432B4339
:100D1000CD6804682B430D6949692B430B430E4989
:100D2000934091408C43234303600125280070BD0C
:100D300033432B43CD6820682B430D6949692B430E
:100D40000B43064993409140884303432360ECE7FB
:100D5000E4FFFEBF1C0001407E3F00007C3F00001E
:100D60001B4B30B50400984207D1012914D0022949
:100D700014D0032914D0042914D0164A01250020C8
:100D80001368AB431360106050609060D060A9425C
:100D90000AD10800616030BD0F4AEFE70F4AEDE766
:100DA0000F4AEBE70F4AE9E71023022903D0032992
:100DB00004D180235B0063602800ECE7042902D1A2
:100DC00080235B01F7E70529E5D180235B02F2E789
:100DD0000000024058000240080002401C0002408F
:100DE0003000024044000240114B10B5591801393F
:100DF0000B78D468C01893680168234314692343AF
:100E00005469234394692343D4692343546A234395
:100E1000084C21400B4303605368C3601368126A97
:100E2000836043681B0C1B0413434360012010BD07
:100E30005C1500080F80FFFFF0B500260F6885B035
:100E40003B00F3400CD14B68013B012B05D8CA682D
:100E500043687A43BB4313434360012005B0F0BDB0
:100E60000123B3403B4036D04A68032501921A0063
:100E70005A435543ED43046802952C40019D554368
:100E80002C430460019C013C012C0AD88468A446D0
:100E900065468C6854430394029C2540039C2C4374
:100EA0008460C468A44665460C6954430394029C5C
:100EB0002C402500039C2543019CC560022C0AD1CF
:100EC0004C69FF2B09D80F25524355436243036AEF
:100ED000AB43134303620136B2E70F221B0A5B43A5
:100EE0005B435A436343456A95431D434562F2E7BA
:100EF000030002681F4810B5834206D08024E40531
:100F0000A34202D01C4CA3420CD17024A2434C68D3
:100F10002243834212D08024E405A3420ED0164C13
:100F2000A3420BD0154CA34208D0154CA34205D0C8
:100F3000144CA34202D0144CA34203D1134C2240C0
:100F4000CC6822431A608A68DA620A889A6283420D
:100F500008D00B4A934205D00A4A934202D00A4A6B
:100F6000934201D10A7C1A6301205A6902435A61F3
:100F700010BDC046002C014000040040002000408D
:100F8000004001400044014000480140FFFCFFFFD9
:100F900070B510296FD003D8012935D00020A7E003
:100FA00080235B00994200D1A3E080235B0199423A
:100FB000F4D1036A6B4E6C4D33400362036A41689F
:100FC000C4692C4015682D022C43684D1D401369DF
:100FD0001B032B43556833402D032B43644DA8421C
:100FE00008D0644DA84205D0634DA84202D0634D9D
:100FF000A84204D1624D29409569AD012943D268C8
:101000004160C461026434E07326036A8B43036267
:10101000036A44688569B543166835430226B343BD
:10102000166933438B4351680B435149884208D0BA
:101030005049884205D05049884202D04F498842E1
:1010400013D108218B43190053699B000B430421E2
:101050008B43916889000B434A490C4091690C43CA
:1010600049490C40D16949000C43D268446085610C
:10107000426303623BE0036A3B4E8B430362056AB3
:101080004368846934401668360234432026B543E9
:101090002E0015692D0135438D43290055682D011A
:1010A0002943334DA84208D0324DA84205D0324DD5
:1010B000A84202D0314DA84214D18025A9430D0089
:1010C0005169890129434025A9439568AD01294308
:1010D0002E4D1D4093699B002B432D4D2B40D56910
:1010E000ED002B434360D368846183630162012078
:1010F00070BD7325036A234E33400362016A43685F
:10110000C469AC4315682C431F4D0D401169090299
:101110002943556831402D022943154DA84208D076
:10112000144DA84205D0144DA84202D0134DA84238
:1011300013D1174D0D40516989022943134D2940A0
:101140009568AD022943074D1D4093691B012B4350
:10115000064D2B40D5696D012B434360D368C461B4
:10116000C363C3E7FFEFFFFFFF8CFFFFFFDFFFFF5E
:10117000002C014000400140004401400048014073
:10118000FFBFFFFFFFFEFFFFFFFDFFFFFFFBFFFFB6
:10119000FFF7FFFF30B5102939D003D801291FD040
:1011A000002033E080235B00994247D080235B011D
:1011B0009942F5D1036A2D4CD568234003625368E8
:1011C000C4692B43956812682B43294D1B0A2C4098
:1011D00023431203C361036A1143264A134042E0CA
:1011E000036AD5688B430362536884692B4395680F
:1011F0002B43FF251B0CAC432343836113680A2256
:10120000046A0B43944323430362012030BD036A05
:10121000D5688B430362536884692B4395682B43DD
:10122000134D1B0A2C40234383611368046A1B017E
:101230001943A0239C4321430162E6E7036A0E4C55
:10124000D568234003625368C4692B4395682B43D8
:10125000FF251B0CAC432343C3611368046A1B02C4
:101260001943064B23401943E6E7C046FFEFFFFF53
:10127000FF00FFFFFF5FFFFFFFFEFFFFFFF5FFFF28
:10128000014B18607047C0461400002070B50D4E29
:101290000D4D0024AD1BAD1005D0A300F358013453
:1012A0009847A542F9D100F04DF9084E084D0024A9
:1012B000AD1BAD1005D0A300F35801349847A542EB
:1012C000F9D170BD68150008681500086815000898
:1012D00070150008F0B505000F2A2FD90B00034345
:1012E0009B0734D116000C000300103E3509013570
:1012F0002D01451927681F6067685F60A7689F60B8
:10130000E7681034DF6010339D42F3D10F239E4312
:101310001036851989191340032B1AD91E1F002373
:10132000B4080134A400CF58EF500433A342FAD1DB
:101330000324A643331D2240C918ED18002A05D006
:101340000023CC5CEC5401339342FAD1F0BD05008C
:10135000F6E71A00F2E7C046F0B5830743D0541E03
:10136000002A3FD0CEB20200032502E01A00013C61
:1013700038D3531C16702B42F8D1032C2AD9FF22E4
:101380000A40150215432A0415430F2C14D92700CF
:101390001A00103F3E09013636019E19156055604E
:1013A0009560D56010329642F8D10F2297431037DE
:1013B000DB191440032C0DD91A00271FBE08013673
:1013C000B6009E1920C2B242FCD1032297430437D3
:1013D000DB191440002C05D0C9B21C191970013357
:1013E0009C42FBD1F0BD14000300C6E7034B10B5CF
:1013F000002B02D0024800F005F810BD00000000EC
:101400001514000810B5010000230022002000F090
:101410001FF810BD70B5094B094CE41AA41009D08F
:10142000084AA518AD00ED182B68013C9847043D0B
:10143000002CF9D100F08CF870BDC0467015000882
:1014400074150008FFFFFF3F7047C0467047C04655
:10145000F0B54E464546DE465746E0B5364D83B0BC
:101460000600286898460F009146FFF7EDFF334BC2
:101470001C68A4235B00E058002852D043681F2B4F
:1014800013DC5A1C0192002E28D1019A02339B00D2
:1014900042601F502868FFF7D9FF002003B03CBC12
:1014A00090469946A246AB46F0BD254B002B3DD059
:1014B000C820400000E000BF002837D0A42200234D
:1014C0005200A15843600160A05040328350043262
:1014D0008350013301930023002ED6D09A00924608
:1014E00082444A46882154466250C42252009146A2
:1014F00081444A468739994012688B460A4394468C
:101500004A4661461160842241465200A150022E93
:10151000BBD102005C468D32FF3211680C4314606F
:10152000B3E720004D30FF30E050A7E72868FFF711
:101530008DFF01204042B1E74004002064150008FF
:1015400000000000F8B5C046F8BC08BC9E467047D5
:0C155000F8B5C046F8BC08BC9E467047C9
:0C155C00081C304458000000180000205B
:08156800ED130008E900000882
:04157000C1000008AE
:1015740001010A0A0A00FA00000204000002010143
:101584000200000000127A000000000004030020A2
:101594006C030020D40300200000000000000000C1
:1015A4000000000000000000000000000000000037
:1015B4000000000000000000000000000000000027
:1015C4000000000000000000000000000000000017
:1015D4000000000000000000000000000000000007
:1015E40000000000000000000000000000000000F7
:1015F40000000000000000000000000000000000E7
:1016040000000000000000000000000000000000D6
:1016140000000000000000000000000000000000C6
:1016240000000000000000000000000000000000B6
:1016340001000000000000000E33CDAB34126DE653
:10164400ECDE05000B0000000000000000000000BC
:101654000000000000000000000000000000000086
:101664000000000000000000000000000000000076
:101674000000000000000000000000000000000066
:101684000000000000000000000000000000000056
:0419B4007C0500208E
:04000005080007C523
:00000001FF
