:020000040800F2
:1000000000200020DD110008C5120008C9120008F8
:1000100000000000000000000000000000000000E0
:10002000000000000000000000000000CD120008E9
:100030000000000000000000D1120008D5120008E6
:100040002D1200082D1200082D1200082D12000894
:100050002D1200082D1200082D1200082D12000884
:100060002D1200084D1400082D1200082D12000852
:100070002D1200082D1200082D1200082D12000864
:10008000B11600082D120008000000002D12000813
:100090002D1200082D1200082D1200082D12000844
:1000A0002D1200082D1200082D1200083917000823
:1000B0002D120008000000002D12000800000000B2
:1000C00010B5064C2378002B07D1054B002B02D02E
:1000D000044800E000BF0123237010BD4C04002041
:1000E00000000000F8260008084B10B5002B03D0D4
:1000F0000749084800E000BF07480368002B00D10B
:1001000010BD064B002BFBD09847F9E7000000001C
:1001100050040020F82600084C04002000000000D5
:10012000002243088B4274D303098B425FD3030A36
:100130008B4244D3030B8B4228D3030C8B420DD349
:10014000FF22090212BA030C8B4202D312120902D7
:1001500065D0030B8B4219D300E0090AC30B8B4215
:1001600001D3CB03C01A5241830B8B4201D38B03C3
:10017000C01A5241430B8B4201D34B03C01A524168
:10018000030B8B4201D30B03C01A5241C30A8B42AB
:1001900001D3CB02C01A5241830A8B4201D38B0296
:1001A000C01A5241430A8B4201D34B02C01A52413A
:1001B000030A8B4201D30B02C01A5241CDD2C309AC
:1001C0008B4201D3CB01C01A524183098B4201D328
:1001D0008B01C01A524143098B4201D34B01C01A13
:1001E000524103098B4201D30B01C01A5241C3088B
:1001F0008B4201D3CB00C01A524183088B4201D3FA
:100200008B00C01A524143088B4201D34B00C01AE5
:100210005241411A00D20146524110467047FFE751
:1002200001B5002000F0F0F802BDC0460029F7D06B
:1002300076E7704703460B437FD4002243088B4286
:1002400074D303098B425FD3030A8B4244D3030B5D
:100250008B4228D3030C8B420DD3FF22090212BA22
:10026000030C8B4202D31212090265D0030B8B429E
:1002700019D300E0090AC30B8B4201D3CB03C01A88
:100280005241830B8B4201D38B03C01A5241430B63
:100290008B4201D34B03C01A5241030B8B4201D353
:1002A0000B03C01A5241C30A8B4201D3CB02C01ABE
:1002B0005241830A8B4201D38B02C01A5241430A36
:1002C0008B4201D34B02C01A5241030A8B4201D325
:1002D0000B02C01A5241CDD2C3098B4201D3CB01CC
:1002E000C01A524183098B4201D38B01C01A52417B
:1002F00043098B4201D34B01C01A524103098B427F
:1003000001D30B01C01A5241C3088B4201D3CB0069
:10031000C01A524183088B4201D38B00C01A52414C
:1003200043088B4201D34B00C01A5241411A00D2FC
:1003300001465241104670475DE0CA0F00D0494265
:10034000031000D34042534000229C4603098B42D5
:100350002DD3030A8B4212D3FC22890112BA030A5D
:100360008B420CD3890192118B4208D389019211DF
:100370008B4204D389013AD0921100E08909C30964
:100380008B4201D3CB01C01A524183098B4201D366
:100390008B01C01A524143098B4201D34B01C01A51
:1003A000524103098B4201D30B01C01A5241C308C9
:1003B0008B4201D3CB00C01A524183088B4201D338
:1003C0008B00C01A5241D9D243088B4201D34B0053
:1003D000C01A5241411A00D20146634652415B1095
:1003E000104601D34042002B00D549427047634676
:1003F0005B1000D3404201B5002000F005F802BDBB
:100400000029F8D016E770477047C04610B502289B
:100410001ED005280BD0022926D0052947D0022A54
:100420002ED0052A37D0284B284C18780AE0002215
:10043000254B1A70264B1B78002B10D1002300206F
:10044000224C237001F0D6F8207801F0FBF810BDA3
:1004500000221D4B1A701E4B1B78002BEED101237E
:100460001A4C00202370EDE70122174B1A70184B2D
:100470001B78002B22D00023144C01202370E1E7CD
:10048000114B1A70124B1B78002B0BD000230F4C12
:1004900002202370D6E702220B4B1A700C4B1B78FC
:1004A000002BF3D00123094C02202370CAE701225C
:1004B000054B1A70064B1B78002BDCD00123034C34
:1004C00001202370BEE7C04601000020000000208C
:1004D00076040020F0B5DE4657464E464546E0B568
:1004E0004B4B87B01A68012A08D04A4B188807B0CE
:1004F0003CBC90469946A246AB46F0BD0022002186
:100500001A6002A8103202F001F8434A1168936F92
:1005100016005B1A99091809401ADB094408E51A04
:10052000C018E41801239C4602A980365368176856
:10053000DB1BAB42D9D38342D7D8A34201D9634650
:10054000CB73083201399642F0D102AAD27A02ABBB
:10055000944602AAD479927BDB7B924602AA977AD0
:10056000927902A90192497B894602A94E7A49797A
:100570008B4602A9097B884602A90D7A614659403B
:100580006140C800514679405140424689000143CC
:1005900002A800796A40424011434A4658467240D8
:1005A000424052000A4302A802A9C9788078C900D3
:1005B0008000084302A9097852B2084302A9497889
:1005C0004900014349B28A4200D08EE7980253465F
:1005D0005B0218435B4618434B461B0218434346D5
:1005E000DB011843634600229B0118437F01384317
:1005F0003601019B3043ED00A400284320435C00FA
:100600002043044B80B21880044B1A806FE7C04629
:100610009C04002068040020EC0400200800002056
:100620000022054B1A70054B0132FF321A80044B31
:10063000803A1A807047C046760400206E0400207D
:100640006C04002070B55C4B00283ED11C78002C57
:1006500062D11870002921D1587800284CD15970E6
:10066000002A05D19978002900D095E09A7070BDD4
:10067000012A61D0022AF9D199780229F6D0902175
:10068000C90508684D4C04408020C0032043086021
:100690008020000188624A498A62E7E701296BD01D
:1006A0000229DCD158780228D9D09020C0050468EE
:1006B000444D2540802464032C4304608024E400DE
:1006C000846201243E488462C9E7012844D002289C
:1006D000BFD11C78022CBCD09024E40525683A4E8A
:1006E0002E408025ED02354325608025AD00A562B2
:1006F000813DFF3DA562ACE79020C0050468314D07
:100700002540802464032C4304608024E400846238
:1007100001242B488461A2E79024E40525682A4E31
:100720002E408025ED02354325608025AD00A56271
:10073000813DFF3DA5618CE79978012996D09024F1
:10074000E40521681D480840802109040143022076
:1007500021601B49886189E71C78012C00D178E76A
:100760009024E4052568184E2E4080252D0335433E
:1007700025608025A5616CE75878012800D16EE7D7
:100780009025ED0528680F4C04408020800320430D
:1007900028600B48816162E79021C9050868074C11
:1007A00004408020C003204308608020000188624C
:1007B00002200349886159E704000020FFFF3FFF42
:1007C00000040048FFFFCFFFFFFFF3FFF0B5DE4658
:1007D00057464E464546E0B59BB000F029FD00F077
:1007E0007BFDFFF71DFF00F09BFD00F073FE002076
:1007F00000F0B0FE00F0B6FE00F0BEFD00F068FFB5
:1008000000F0D6FF01F0BEF84023022503260027A2
:1008100002933F3B99460693D94B902402A91800B6
:10082000984607970395049601F076FA0423E405A9
:1008300008A92000089309950A960C950D9501F0DA
:100840006BFA33230EA920000E93129713970F967D
:10085000109601F061FAE02314A91B012000149303
:100860001797189715951696199501F055FA4B4656
:10087000803714A920001593149701F04DFA14A99C
:100880004046149601F048FA2368BE4A01211A40F6
:100890008023DB021343236080239B00A362A761B4
:1008A0002368B94A00201A4080235B031343236066
:1008B0008023DB00A3624A4643469A612368B34A19
:1008C0001A408023DB031343236080231B01A362B0
:1008D000434600229D6100F09DFA00220021002085
:1008E00000F098FA01220021002000F093FAA848B5
:1008F00000F036FDA74BA84F9846A84B9B46A84B47
:100900009A46A84B994600F025FD040001F05CF8DA
:100910004346A54A1B88934202D8424601331380BE
:10092000FFF7D8FD4346FA221B8806000500920017
:10093000934200D1DCE0524612682E2A03D89B4A2B
:10094000904200D1C4E053461E604B4600229B5E9D
:10095000642B00DDA1E02F2D53D843461B880022D5
:1009600093490A8059460A70012B00D8D8E000202C
:1009700000F082FE9023DB051A688249804811400E
:100980008022D2020A431A60802292009A62813A3F
:10099000FF3A9A611A687C491140802252030A4347
:1009A0001A608022D2009A62012282611A68774915
:1009B00011408022D2030A431A60802212019A62F7
:1009C00002238361484600F0BBFF7A4B1B78012B62
:1009D0004FD03B78002B0DD05B461D78002D09D100
:1009E000754B764A1B8801339BB2934200D1B2E02B
:1009F000714A138000F0AEFC001B80B27C28F9D94C
:100A000081E76F4B1B88632B06D880222B1C52007A
:100A1000954200D9131C9DB2654B1B881A001432F5
:100A2000954203DD67498B4200D895B2604B1D802B
:100A3000654B1E78012E00D19AE000235A461370B0
:100A4000624B1B88C82B3FD9012000F015FE002304
:100A50005B4A13805E4A13605C4A13805D4B1878D2
:100A600000F05CF9484600F06BFF524B1B78012BFD
:100A7000AFD1574B58481968FFF752FB4B461881C6
:100A80005B461B78002B01D14A461381484600F093
:100A900033FB0023474A13709BE7643B9900C91856
:100AA0003A7864314D480192FFF7C4FB80239B00E4
:100AB000984200DA1800B04248DA019B85B2002B58
:100AC0009FD102233B7046E7404A0133138079E708
:100AD000002251460A604A460021525E642A00DC28
:100AE0003DE73B78002B00D037E702333B7034E71B
:100AF0000025354B00201D7000F02CFD5B461B7857
:100B0000012B6FD053461D604B4600229B5E642B29
:100B100000DC22E73A78002A00D01EE70025D0E763
:100B2000294B1B78002B00D021E70122012108204E
:100B300000F070F92A4800F013FC0122012108207E
:100B400000F068F90123204A137010E7019B002B85
:100B500000D000E7B5E7184B1D800122012180205D
:100B600000F058F901353B78EDB2AB42F5D841E7DA
:100B70006D08A8B2023000F0EDFC5B461E705FE726
:100B800000040048FFFFF3FFFFFFCFFFFFFF3FFF21
:100B9000FFFF0000080000208C040020A0040020BB
:100BA0009404002078040020E7030000FF07000001
:100BB0008E0400206A040020980400204C1D0000D0
:100BC00070040020FF010000720400207404002063
:100BD000880400207604002000350C009C1F0300D0
:100BE000FF8F00003A78002A03D13B7053461A6009
:100BF000B3E653461D604B4600215B5E642B8ADCE6
:100C0000ABE6C046F0B54646D6464F46384CC0B572
:100C10008046258800F028FD364E3378834204D084
:100C20001CBC90469946A246F0BD334B9A465246AC
:100C3000A02312685B009A423ED9304B99461B882C
:100C4000632B35D9032000F08BFB00F00DFD3378CA
:100C50008342E5D100222A4B00201A8000F00CFDCF
:100C60004B461B880F2B2AD8264E274F53461A680F
:100C7000012013019B1A4246551BADB25D19534624
:100C80002D091D60214A224B12881B886B43554356
:100C90009B0AAD0AED1833603D6000F0EDFC4B4659
:100CA0001C4A1B889342BBD84A4601331380B7E7DE
:100CB0000A2000F055FBC8E7104B9946CAE74346A7
:100CC000104E238000F0EEFC2388C01A336880B2F7
:100CD0009842F7D3104B187800F020F80A4F00F034
:100CE000E1FC2388C01A3B6880B29842F7D3BDE785
:100CF00090040020000000208804002070040020E0
:100D000074040020A4040020840400206C0400204B
:100D10006E040020E703000076040020002310B5D5
:100D20003A4CE356002824D15A1C5DDB042B39DCF5
:100D300001335BB20121237061564A1C39DB04295F
:100D400061DD053949B202226170A256501C37DBC1
:100D5000042A55DD053A52B22D48A270415C825CEE
:100D6000C05CFFF76FFCA27861782078FFF74EFB3C
:100D700010BD002B3BDD062B25DC013B5BB20121C6
:100D800023706156002925DD062936DD073949B271
:100D900002226170A256002A23DD062A2ADD073AC4
:100DA00052B2D9E70121053B5BB2237061564A1C60
:100DB000C5DA0222073149B26170A256501CC7DA67
:100DC000073252B2C8E70121073B5BB2237061567C
:100DD0000029D9DC0222053149B26170A256002AED
:100DE000DBDC053252B2B7E707335BB2A2E705336B
:100DF0005BB2C4E7013A52B2AEE7013949B2C7E784
:100E0000013252B2A8E7013149B29CE70C00002040
:100E100010000020F0B5DE4657464E464546E0B588
:100E200087B0019000200C000491059200F024FC92
:100E30009023DB051A68AA49AA4811408022D202F1
:100E40000A431A60802292009A62813AFF3A9A62BB
:100E50001A68A5491140802252030A431A60802271
:100E6000D2009A62012282621A68A049114080224F
:100E7000D2030A431A60802212019A62022383621B
:100E8000002000F067FB002C00D125E10F23902506
:100E900003930023ED050293022B00D90EE1049B7E
:100EA000002B00D014E1924B99465AE080268F4ADD
:100EB000F603134033432B6080231B01AB629B4638
:100EC0000223884F92469846BB625F2800D98AE089
:100ED0002B68854A019E1A4080239B0313430122FD
:100EE0002B60804B31009A612000FFF7A3F980B29C
:100EF00000F036FA32203100001BFFF79BF980B278
:100F00002B68774A802613408022D20213432B603D
:100F100080239B00AB62813BFF3BAB622B68724A34
:100F2000704C13408022520313432B608023DB005C
:100F3000AB620123A3626D4A9B462B68F603134004
:100F400033432B60802302271B01AB62A7629846C4
:100F5000924600F005FA02239C46664BE1444B455D
:100F60006BD000F031FD2B685D4A13408022D20225
:100F700013432B6080239B00AB62813BFF3BAB6143
:100F800000F0E8F97F2318404B461C882B68312C71
:100F90008CD98026544A7603134033432B60802338
:100FA000DB00AB629B4601234E4F92469846BB62E4
:100FB0005F282DD82A684A4B20001A4080231B0343
:100FC00013432B608023019EAB6131003238FFF761
:100FD00031F980B200F0C4F964203100001BFFF742
:100FE00029F980B28CE753462A681A4080231B04F3
:100FF00013432B604346BB6100F0B2F952462B68A5
:1010000013401E435B462E60AB624346BB625FE704
:1010100053462A681A4080239B0313432B604346A0
:10102000BB6100F09DF952462B6813401E435B469E
:101030002E60AB624346BB62BCE7029B039A01335E
:10104000DBB2073202930392062B00D024E7002084
:1010500000F080FA9023DB051B68214A13408022B0
:10106000D20213439022D205136013008022920013
:101070009A62813AFF3A9A621B681B4A13408022A7
:10108000520313439022D205136013008022D20032
:101090009A625B46A36290235246DB051B681340AD
:1010A0001E4390234246DB051E609A62A76207B08A
:1010B0003CBC90469946A246AB46F0BD059B002B32
:1010C00000D1F0E64820039BC01A00F043FAEAE69C
:1010D000039800F03FFAE6E61E2000F03BFAD5E662
:1010E000FFFFF3FF00040048FFFFCFFFFFFF3FFFBC
:1010F000102700086829000830B5038885B001AAC8
:1011000013700221435E1912517093700421435EE3
:101110001912D17013710621435E19125171937126
:101120000821435E07201912D17113720021002398
:101130001FE0DCB21D0626D45B00DCB21D0627D4FE
:101140005B00DCB21D0628D45B00DCB21D0629D48E
:101150005B00DCB21D062AD45B00DCB21D062BD47A
:101160005B00DCB21D062CD45B000131DBB2092927
:101170002DD0545C63405CB25B00002CD9DA434054
:10118000DCB21D06D8D563004340DCB21D06D7D5BE
:1011900063004340DCB21D06D6D563004340DCB299
:1011A0001D06D5D563004340DCB21D06D4D56300CF
:1011B0004340DCB21D06D3D563004340DCB21D06BC
:1011C000D2D5630043400131DBB20929D1D10131CD
:1011D0001000537200F0D0FA05B030BD0D488546BE
:1011E000002103E00C4B5B58435004310B480C4B7F
:1011F00042189A42F6D30B4A02E0002313600432ED
:10120000094B9A42F9D300F0E7FB01F019F9FFF717
:10121000DDFAFEE7002000209829000800000020E9
:101220004C0400204C04002038060020FEE700009B
:1012300010B500F0D1FB01211D4A13688B430B430D
:1012400013601C4A13680B43136001311368194281
:10125000FCD0536818491940A0239B030B430F216E
:101260005360D36A8B43D362802311685B040B43C2
:10127000802113600F4A890413680B42FCD0F021CF
:1012800053688B4353605368ED398B4301390B43EB
:101290005360084A0A3153680B40082BFBD153684E
:1012A000064907480B40536001F0C4F810BDC04622
:1012B0000020024000100240FFFFC2FFFFF8FFFFC6
:1012C000006CDC027047C046FEE7C0467047C0466F
:1012D0007047C0467047C0460D4B0E48596984B0F0
:1012E000014359615A6902400392039A0A48D96935
:1012F0000143D961DA69094902400292029A9A6966
:101300000A439A619B690B400193019B04B07047AB
:10131000001002400100060013000200014A06000E
:101320002F2310B586B001A90B80084B084C8B60A9
:1013300000232000CB600B744B6000F00DFE0122F7
:1013400023681343236006B010BDC046FFFF0000B2
:1013500000100040014B586A80B2704700100040F6
:10136000044A516A89B2536A5B1A9BB28342FAD328
:101370007047C04600100040F0B5C646012300B5D6
:10138000802494B005A95B4200258B6000230126D0
:10139000E40520000D80CD600B744D6000F0DCFD95
:1013A00023688021334323600A23019380235B0257
:1013B0000293042301AA490020000395049300F03E
:1013C00033FF1C4B01211800984600F013FC1A4B08
:1013D0000C950A93194B0E950B93202380220D93A5
:1013E000129380278025C0230F92BF009B010AAA79
:1013F0002D010121404611951393109700F064FCD4
:10140000C2200F4B80001A580E4911408022120250
:101410000A4302211A501F600B4B1A680A431A60D4
:10142000E2681543E5601A6832431A6014B004BCE0
:101430009046F0BD000002403C00004094050020B2
:1014400000E100E0FF00FFFF0800024002211B4A0C
:1014500070B5136819421FD0194C5160A3682568F4
:10146000E06F5B1B26681D01EB18801B834214D9BB
:1014700080222100134801F007F8E26DA06DA368F7
:101480002168121A5B1A5B089A4202D901220E4B9C
:101490001A7001220D4B1A6070BD01250C480468BA
:1014A000AC430460202443681B0C1B0423434360AB
:1014B000516003682B430360EEE7C0460000024022
:1014C00094050020EC0400206A0400209C04002005
:1014D00008000240802370B58EB001A9DB00002512
:1014E0008B6000231A4C012620000D80CD600B7408
:1014F0004D6000F031FD602306AA01212000069313
:101500000796089609950A950C950B950D9500F090
:101510007DFD06AA1021200000F078FD802106AA9A
:101520004900200000F072FD802106AA4901200038
:1015300000F06CFDFF22636C9343636423683343C4
:1015400023608023626C1B02134363640EB070BD82
:10155000002C0140024B58639863D86318647047AD
:10156000002C0140042370B590B00A932C330C93E7
:10157000C023002401261B4D0AA9DB0028000E937E
:101580000B940D940F9400F0F5FA2B6805A93343E2
:101590002B600523144D0B80144B28008B60CC600E
:1015A0000C744C6000F0D8FC2B6801AA33432B600C
:1015B0000A230193802301215B02280002930394F4
:1015C000049400F031FE0222EB68FF201343C42292
:1015D0000749EB6092008B588343BF3803438B501D
:1015E00010B070BD1C00014000040040FFFF00006F
:1015F00000E100E000280ED0012814D0022806D116
:1016000070210D4A13688B4330390B4313600B4A2A
:101610000B4B1A6170477021074A13688B432039BE
:101620000B431360F3E77021034A13688B431039AF
:101630000B431360EBE7C0461C000140FDFF0000B8
:10164000000400400A21064A136A8B43002801D097
:1016500008390B431362034A014B1A617047C046B5
:1016600000040040FDFF00000120024B1B689B0BA3
:10167000984370471C000140012805D08021802339
:10168000054A4902D1507047044A054B1A61024B82
:1016900003321A60F7E7C04600E100E0FDFF0000FA
:1016A00000040040014B586A80B2704700040040BB
:1016B000054B10B51A69920705D5044A1A61586B93
:1016C00080B2FFF79FFA10BD00040040FDFF00004C
:1016D00010B5174C88B0200000F022FE0822A36845
:1016E00001A91343A360E1235B02019300230432A9
:1016F000200002930393049305920693079300F04E
:101700003BFE0122C6208021236880001343094A42
:101710002360135809061B021B0A0B431350802336
:101720001B051360802223681343236008B010BD9B
:101730000038014000E100E080220B4B10B5D96970
:101740000A4206D009480178002903D1196891435B
:10175000196010BD064A074C1278521AA25C013972
:101760001A850170F5E7C04600380140E904002001
:10177000E8040020A8040020094B10B51970094B9B
:101780001970002906D00139CAB201320100064899
:1017900000F07AFE8021054A13680B43136010BDE8
:1017A000E8040020E9040020A804002000380140DB
:1017B000F0B58024564A5749136864000B40234310
:1017C000043195B01360FF31534800F013FA534BC6
:1017D00080270A93524B00250B9320230D936033EF
:1017E0000F938023DB0011931423BF010AAA022167
:1017F0004948109412930C950E95139700F064FAD3
:101800000121484A484E1368484C0B43136030008E
:1018100000F012F9200000F01FF9802301A8DB0579
:10182000019302950395049500F084F93368404ACA
:1018300005A91A4080231B04134333600323089334
:10184000802320005B01099305950695079700F01A
:1018500079F90422E36837489343E360636903320C
:101860009343053A134363618023A26A5B021343E7
:10187000A362A368304A1A4080231B0613432F4AF1
:10188000A360516A89B2536A5B1A9BB28342FAD948
:10189000264A9368002BFCDB284A2648516A89B205
:1018A000536A5B1A9BB28342FAD901211F4B21482C
:1018B0001960526A214992B24B6A9B1A9BB28342C9
:1018C000FAD91A4A1C4893680340012003439360E5
:1018D0004A6A1A48174992B2436A9B1A9BB28B42D2
:1018E000FAD9012211498B681A42FCD0134A1148D7
:1018F000516A89B2536A5B1A9BB28342FAD90B4A86
:101900000D4993680B4004210B43936015B0F0BD63
:1019100000000140FFFEFFFF0000024040240140A4
:101920006C0500201C0002400827014000240140F3
:10193000FFFF3FFE87130000E8FFFF7F001000401D
:101940000C4B70B50C49040018880C4B48431D889B
:10195000FEF7E6FB431B9800C018094B00011988ED
:10196000491BFEF767FC00231E3020806380A380A4
:1019700070BDC0466C050020E40C0000B8F7FF1FE6
:10198000C2F7FF1F0B4A0C4B012113600B4B136076
:1019900000235360D3681942FCD10221084B9360A5
:1019A000044AD3681942FCD1034B1360054B136002
:1019B0007047C04600300040CCCC000055550000B8
:1019C000DC050000AAAA0000014A024B1A60704719
:1019D000AAAA0000003000400121114B11481A68EA
:1019E0000A431A605A6802405A601A680E48024058
:1019F0001A601A680D4802401A605A680C48024082
:101A00000F205A60DA6A8243DA621A6B0948024090
:101A10001A635A6B8A435A6300229A607047C04621
:101A2000001002400CB8FFF8FFFFF6FEFFFFFBFFBF
:101A3000FFFFC0FFACFEFFFF8022054B9200D9687C
:101A400001200A43DA60DA6802490A40DA60704726
:101A500000100240FFFDFFFF002310B582B001938C
:101A6000836802000120DB072BD5D3682C490B408B
:101A7000D36093685B0747D480231B020193012046
:101A8000102406E0019B591E0191591E8B415B42B7
:101A9000184093681C42F5D19368224902240B40F8
:101AA00002210B43936080231B02019306E0019BFC
:101AB000591E0191591E8B415B42184093681C428C
:101AC000F5D117219368194228D19F245168A14369
:101AD00051601368144923431360D3680B400721F6
:101AE000D36013699B009B08136153698B43536157
:101AF000136A0E4919400E4B0B431362936ADB0CB9
:101B0000DB04936202B010BD102193681942B3D177
:101B10009368044803400B439360ADE70020F1E76E
:101B20003FF2FFFFE8FFFF7F00023E8300F000F07E
:101B30000000FF0F8023DB05036000234360836008
:101B4000C36070478368020010B50020DB070ED425
:101B50004C680B68D06823438C682343CC680969C0
:101B600023430B430249014001200B43D36010BDC6
:101B70003CC2FEFF1B4B30B5C2188023D2001B02B3
:101B80009340194C25681D40AB4215D0A04215D09A
:101B90004D680B6820682B438D682B43CD682B4321
:101BA0000D6949692B430B43104993409140884389
:101BB00003430120236030BD0020FCE74D680B6823
:101BC00004682B438D682B43CD682B430D6949690D
:101BD0002B430B430649934091408C4323430360BE
:101BE0000120E8E7E4FFFEBF1C0001407C3F00004D
:101BF0007E3F00002E4B10B598421AD001242D4B89
:101C00001A68A2431A6000221A605A609A60DA6069
:101C100001292ED002291FD003293ED0042941D00A
:101C20000023052903D180235B02436001231800B0
:101C300010BD012914D002291ED0032929D004295E
:101C400029D001241B4B1A68A2431A6000221A6093
:101C50005A609A60DA60E3E7102343600F3BE6E7DF
:101C6000154B1A688A431A6000221A605A609A60FB
:101C7000DA6001234360DAE7104B01241A68A243BB
:101C80001A6000221A605A609A60DA600229C3D191
:101C9000E2E70B4BF1E70B4BEFE780235B00436080
:101CA000FF3BC4E780235B0143600123BFE7C046DD
:101CB0000000024058000240080002401C000240A0
:101CC0003000024044000240114B10B55918013950
:101CD0000B78D468C01893680168234314692343C0
:101CE0005469234394692343D4692343546A2343A7
:101CF000084C21400B4303605368C3601368126AA9
:101D0000836043681B0C1B0413434360012010BD18
:101D1000802900080F80FFFFF0B5DE464E4657468B
:101D20004546E0B50E688B46002E00D173E04B6847
:101D300000229C4601235B42634498460AE05946D0
:101D40000969C3684D431C402C43C4603300013211
:101D5000D34042D0012393403340F7D01D000468A4
:101D60005D43A1466C0064194F46E4432740B946E1
:101D700067466F43BA464F4651460F434146076098
:101D80000129DCD881688A465946896869438946B1
:101D9000514621408A464946574639438160C168C9
:101DA0008A46594609696943894651460C40494665
:101DB0000C436146C4600229C8D1FF2B1ED8594686
:101DC0006D4349692C01641B4D43036A0132A343EF
:101DD0001D4333000562D340BCD14346012B06D8D6
:101DE0005A464368D268B34356431E4346600120B7
:101DF0003CBC90469946A246AB46F0BD59461B0AEC
:101E00005B435B4349691D01ED1A4B43446AAC4394
:101E1000234343629AE74B68013B9846DDE7C0469F
:101E20000C23164A70B5516805000B40082B10D1E1
:101E30005368DB031FD412480F24104BD96A5E6825
:101E400021400131FEF76CF9B60C34400234604396
:101E500000E00C48094A286053680B491B061B0F19
:101E6000CB5CD84068605368084A5B055B0FD35C65
:101E7000D840A86070BD0348DEE7C04600100240AD
:101E800000093D0000127A0068290008782900083E
:101E9000030070B50020002B34D12A4A0333116BA4
:101EA0000B40022B2FD0032B42D05168012B15D0B1
:101EB0000C230B40082B2CD15368DB033FD5224861
:101EC0000F24204BD96A5D6821400131FEF728F9C3
:101ED0000300AD0C2C40A01C58431BE00B330B40FF
:101EE000082B28D15368DB0327D418480F24154B3F
:101EF000D96A5D6821400131FEF712F9AD0C2C4022
:101F00000234604370BD106A1840431E9841C003FC
:101F1000F8E70D480B4B0E495A685B681206120F22
:101F20008A5C5B05D0400B4A5B0FD35CD840E9E785
:101F300013689B07E6D50448E4E70348D6E703485F
:101F4000BEE7C0460010024000127A0000093D00C2
:101F50006829000878290008254A036890421DD0A6
:101F60008022D205904229D0224A904226D0224A8D
:101F7000904237D0214A904214D0214A904211D049
:101F8000204A90420ED003608B68C3620B88836244
:101F90000122436913434361012070477022934338
:101FA0004A681343184A1340CA68134303608B6896
:101FB000C3620B8883620B7C0363E9E7702293435F
:101FC0004A681343104A1340CA68134303608B687E
:101FD000C3620B8883620A4B9842ECD0094B98424B
:101FE000E9D0D5E7084A1340CA681343CBE7C04697
:101FF000002C01400004004000200040004001404F
:102000000044014000480140FFFCFFFF70B510296B
:1020100000D183E05AD980235B0099422FD08023DE
:102020005B01994278D1016A734E744C3140016270
:10203000036A4568C1692140146824020C43704951
:10204000194013691B030B435168334009030B43C9
:102050006C49884200D19EE06B49884200D19AE0E9
:102060006A49884200D196E06949884200D192E0ED
:10207000D2684560C4610264036201204DE07324AC
:10208000016A644E31400162036A4168C569A54333
:1020900014682543604C1C4013691B022343546899
:1020A000334024022343574CA0425FD0564CA042F9
:1020B0005CD0564CA04259D0554CA04256D0D26864
:1020C0004160C561C2630362012026E0012923D17A
:1020D0007326036A8B430362036A45688469B443C9
:1020E000166834430226B343166933438B43516861
:1020F0000B43444988426AD04349884267D04349E8
:10210000884264D04249884261D0D2684560846187
:1021100042630362012000E0002070BD036A374D76
:102120008B430362036A466884692C4015682D025C
:102130002C432025AB431D0013691B012B438B430C
:1021400051680D012F492B4388422AD02E498842DD
:1021500027D02E49884224D02D49884221D0D268E8
:1021600046608461826303620120D6E72B4E2C4CCB
:102170001E4053699B0233431F4E234094680E4018
:102180009169A402234309011D4C31432140D469C4
:102190006601314393E723490D40916989010D435D
:1021A00066E780218B431D00536940399B012B4317
:1021B0008B4391688D011A492B430E409169174D4D
:1021C000890031432940D569EE000E43C7E7082155
:1021D0008B43190053699B000B4304218B43916887
:1021E00089000B430B490D4091690D430A490D408D
:1021F000D16949000D4388E7FFEFFFFFFF8CFFFF28
:10220000FFDFFFFF002C014000400140004401407F
:1022100000480140FFFEFFFFFFFDFFFFFFF7FFFF4C
:10222000FFFBFFFFFFBFFFFF30B5102955D039D9A5
:1022300080235B0099421CD080235B0199424AD1E4
:10224000036A324CD568234003625368C4692B4348
:10225000956812682B432E4D1B0A2C402343C36103
:102260001203036A11432B4A1340194301620120F0
:1022700030BD036A284CD568234003625368C469A3
:102280002B4395682B43FF251B0CAC432343C361B1
:102290001368046A1B021943204B2340194301624F
:1022A0000120E5E7012916D1036AD5688B43036253
:1022B000536884692B4395682B43FF251B0CAC4363
:1022C000234383611368046A19430A239C4321430F
:1022D00001620120CCE70020CAE7036AD5688B437E
:1022E0000362536884692B4395682B43084D1B0A8E
:1022F0002C40234383611368046A1B011943A02304
:102300009C43214301620120B2E7C046FFEFFFFF7B
:10231000FF00FFFFFF5FFFFFFFFEFFFFFFF5FFFF77
:10232000104A0300904210D00F4A0020934200D080
:10233000704780220D4B9202196901300A431A61DD
:102340001A690B490A401A61F2E78022074BD20151
:10235000D96801200A43DA60DA6806490A40DA607F
:10236000E6E7C0460038014000440040001002404B
:10237000FFFFFDFFFFBFFFFF30B5036885B004001E
:102380000D00DB071DD44B68C96802680B4329693F
:102390000B43A9690B4321490A4013430360436877
:1023A0001F4A1340AA681343436083681D4A1340C1
:1023B0006A69134383601C4B984229D01B4B984297
:1023C00002D0002005B030BD01A8FFF729FD039B16
:1023D000002BF6D029680029F3D08022A8691202C8
:1023E000904209D04808C018FDF79AFE0004000C7E
:1023F000E060E3680120E5E758004B08C018FDF7EE
:102400008FFE0B4B03400007400F1843E060F0E7DE
:102410000020FFF73DFD0300DAE7C046F369FFFF48
:10242000FFCFFFFFFFFCFFFF0038014000440040EA
:10243000F0FF0000014B18607047C04618000020F4
:1024400070B50D4E0D4D0024AD1BAD1005D0A30091
:10245000F35801349847A542F9D100F04DF9084EE0
:10246000084D0024AD1BAD1005D0A300F358013476
:102470009847A542F9D170BD8C2900088C29000825
:102480008C29000894290008F0B505000F2A2FD9DF
:102490000B0003439B0734D116000C000300103ED1
:1024A000350901352D01451927681F6067685F6090
:1024B000A7689F60E7681034DF6010339D42F3D156
:1024C0000F239E431036851989191340032B1AD9FF
:1024D0001E1F0023B4080134A400CF58EF5004336A
:1024E000A342FAD10324A643331D2240C918ED1894
:1024F000002A05D00023CC5CEC5401339342FAD17E
:10250000F0BD0500F6E71A00F2E7C046F0B5830714
:1025100043D0541E002A3FD0CEB20200032502E071
:102520001A00013C38D3531C16702B42F8D1032CEF
:102530002AD9FF220A40150215432A0415430F2CFD
:1025400014D927001A00103F3E09013636019E19A2
:10255000156055609560D56010329642F8D10F2213
:1025600097431037DB191440032C0DD91A00271F8D
:10257000BE080136B6009E1920C2B242FCD1032229
:1025800097430437DB191440002C05D0C9B21C193D
:10259000197001339C42FBD1F0BD14000300C6E763
:1025A000034B10B5002B02D0024800F005F810BD17
:1025B00000000000C925000810B50100002300221A
:1025C000002000F01FF810BD70B5094B094CE41A4B
:1025D000A41009D0084AA518AD00ED182B68013CDD
:1025E0009847043D002CF9D100F08CF870BDC0462E
:1025F0009429000898290008FFFFFF3F7047C04654
:102600007047C046F0B54E464546DE465746E0B5F3
:10261000364D83B00600286898460F009146FFF7B4
:10262000EDFF334B1C68A4235B00E058002852D018
:1026300043681F2B13DC5A1C0192002E28D1019AEB
:1026400002339B0042601F502868FFF7D9FF00202B
:1026500003B03CBC90469946A246AB46F0BD254B24
:10266000002B3DD0C820400000E000BF002837D03C
:10267000A42200235200A15843600160A0504032C0
:10268000835004328350013301930023002ED6D0AF
:102690009A00924682444A46882154466250C42297
:1026A0005200914681444A468739994012688B46C8
:1026B0000A4394464A4661461160842241465200CC
:1026C000A150022EBBD102005C468D32FF32116850
:1026D0000C431460B3E720004D30FF30E050A7E713
:1026E0002868FFF78DFF01204042B1E74804002031
:1026F0008829000800000000F8B5C046F8BC08BCF6
:102700009E467047F8B5C046F8BC08BC9E46704768
:10271000050005000400040004000300030003009A
:10272000020002000200010001000100010001009E
:102730000000000000000000000000000000000099
:102740000000000000000000000001000100010086
:102750000100010002000200020002000300030069
:102760000300040004000500050006000600070041
:10277000070008000800090009000A000B000B0010
:102780000C000D000D000E000F00100010001100D5
:102790001200130014001500150016001700180091
:1027A00019001A001B001C001D001E001F00200045
:1027B00021002200220024002500260027002800F6
:1027C00029002A002B002C002D002E002F003000A5
:1027D000310032003300330034003500360037005A
:1027E000380039003A003B003C003D003E003F000D
:1027F00040004200420043004400450046004700BC
:10280000480049004A004B004C004D004E004F006C
:102810004F00500051005200530054005400550026
:102820005600570057005800590059005A005B00E5
:102830005B005C005C005D005D005E005E005F00B0
:102840005F00600060006100610061006200620082
:102850006200620063006300630063006300640061
:102860006400640064006400640064006400640048
:10287000640064006400640063006300630063003C
:10288000630062006200620061006100610060003C
:10289000600060005F005F005E005E005D005D0044
:1028A0005C005B005B005A005A0059005800580059
:1028B0005700560055005500540053005200520076
:1028C000510050004F004E004D004C004C004B009A
:1028D0004A004900480047004600450044004300C4
:1028E0004200410040003F003E003D003C003B00F4
:1028F0003A00390038003700360035003400330024
:10290000310030002F002E002D002C002B002A005B
:10291000290028002700260025002400230022008B
:10292000210020001F001E001D001C001B001A00BB
:1029300019001800180017001600150014001300E5
:1029400012001200110010000F000F000E000D0009
:102950000C000C000B000A000A0009000900080026
:10296000070007000600060000000000000000004D
:102970000102030406070809000000000102030425
:0C298000081C304458000000200000201B
:08298C00A1250008E900000884
:04299400C100000876
:10299800010100000A0A0A00FA000000000204000F
:1029A800000002010102000000127A00000000008D
:1029B800000000000C03002074030020DC0300204A
:1029C80000000000000000000000000000000000FF
:1029D80000000000000000000000000000000000EF
:1029E80000000000000000000000000000000000DF
:1029F80000000000000000000000000000000000CF
:102A080000000000000000000000000000000000BE
:102A180000000000000000000000000000000000AE
:102A2800000000000000000000000000000000009E
:102A3800000000000000000000000000000000008E
:102A4800000000000000000000000000000000007E
:102A5800000000000000000001000000000000006D
:102A68000E33CDAB34126DE6ECDE05000B00000032
:102A7800000000000000000000000000000000004E
:102A8800000000000000000000000000000000003E
:102A9800000000000000000000000000000000002E
:102AA800000000000000000000000000000000001E
:0C2DD800000000000000000014060020B5
:04000005080011DD01
:00000001FF
