:020000040800F2
:10000000002000200D140008F5140008F914000861
:1000100000000000000000000000000000000000E0
:10002000000000000000000000000000FD140008B7
:100030000000000000000000011500080515000880
:100040005D1400085D1400085D1400085D140008CC
:100050005D1400085D1400085D1400085D140008BC
:100060005D1400085D140008751600085D14000892
:100070005D1400085D1400085D1400085D1400089C
:10008000E51800085D140008000000005D14000879
:100090005D1400085D1400085D1400085D1400087C
:1000A0005D1400085D1400085D1400085D1400086C
:1000B00069190008000000005D140008000000003D
:1000C00010B5064C2378002B07D1054B002B02D02E
:1000D000044800E000BF0123237010BD4C04002041
:1000E0000000000058290008084B10B5002B03D071
:1000F0000749084800E000BF07480368002B00D10B
:1001000010BD064B002BFBD09847F9E7000000001C
:1001100050040020582900084C0400200000000072
:10012000002243088B4274D303098B425FD3030A36
:100130008B4244D3030B8B4228D3030C8B420DD349
:10014000FF22090212BA030C8B4202D312120902D7
:1001500065D0030B8B4219D300E0090AC30B8B4215
:1001600001D3CB03C01A5241830B8B4201D38B03C3
:10017000C01A5241430B8B4201D34B03C01A524168
:10018000030B8B4201D30B03C01A5241C30A8B42AB
:1001900001D3CB02C01A5241830A8B4201D38B0296
:1001A000C01A5241430A8B4201D34B02C01A52413A
:1001B000030A8B4201D30B02C01A5241CDD2C309AC
:1001C0008B4201D3CB01C01A524183098B4201D328
:1001D0008B01C01A524143098B4201D34B01C01A13
:1001E000524103098B4201D30B01C01A5241C3088B
:1001F0008B4201D3CB00C01A524183088B4201D3FA
:100200008B00C01A524143088B4201D34B00C01AE5
:100210005241411A00D20146524110467047FFE751
:1002200001B5002000F0F0F802BDC0460029F7D06B
:1002300076E7704703460B437FD4002243088B4286
:1002400074D303098B425FD3030A8B4244D3030B5D
:100250008B4228D3030C8B420DD3FF22090212BA22
:10026000030C8B4202D31212090265D0030B8B429E
:1002700019D300E0090AC30B8B4201D3CB03C01A88
:100280005241830B8B4201D38B03C01A5241430B63
:100290008B4201D34B03C01A5241030B8B4201D353
:1002A0000B03C01A5241C30A8B4201D3CB02C01ABE
:1002B0005241830A8B4201D38B02C01A5241430A36
:1002C0008B4201D34B02C01A5241030A8B4201D325
:1002D0000B02C01A5241CDD2C3098B4201D3CB01CC
:1002E000C01A524183098B4201D38B01C01A52417B
:1002F00043098B4201D34B01C01A524103098B427F
:1003000001D30B01C01A5241C3088B4201D3CB0069
:10031000C01A524183088B4201D38B00C01A52414C
:1003200043088B4201D34B00C01A5241411A00D2FC
:1003300001465241104670475DE0CA0F00D0494265
:10034000031000D34042534000229C4603098B42D5
:100350002DD3030A8B4212D3FC22890112BA030A5D
:100360008B420CD3890192118B4208D389019211DF
:100370008B4204D389013AD0921100E08909C30964
:100380008B4201D3CB01C01A524183098B4201D366
:100390008B01C01A524143098B4201D34B01C01A51
:1003A000524103098B4201D30B01C01A5241C308C9
:1003B0008B4201D3CB00C01A524183088B4201D338
:1003C0008B00C01A5241D9D243088B4201D34B0053
:1003D000C01A5241411A00D20146634652415B1095
:1003E000104601D34042002B00D549427047634676
:1003F0005B1000D3404201B5002000F005F802BDBB
:100400000029F8D016E770477047C04610B502289B
:100410001ED005280BD0022926D0052947D0022A54
:100420002ED0052A37D0284B284C18780AE0002215
:10043000254B1A70264B1B78002B10D1002300206F
:10044000224C237001F0ECF9207801F015FA10BD70
:1004500000221D4B1A701E4B1B78002BEED101237E
:100460001A4C00202370EDE70122174B1A70184B2D
:100470001B78002B22D00023144C01202370E1E7CD
:10048000114B1A70124B1B78002B0BD000230F4C12
:1004900002202370D6E702220B4B1A700C4B1B78FC
:1004A000002BF3D00123094C02202370CAE701225C
:1004B000054B1A70064B1B78002BDCD00123034C34
:1004C00001202370BEE7C04601000020000000208C
:1004D0007A040020F0B5DE4657464E464546E0B564
:1004E0004B4B87B01A68012A08D04A4B188807B0CE
:1004F0003CBC90469946A246AB46F0BD0022002186
:100500001A6002A8103202F031F9434A1168936F61
:1005100016005B1A99091809401ADB094408E51A04
:10052000C018E41801239C4602A980365368176856
:10053000DB1BAB42D9D38342D7D8A34201D9634650
:10054000CB73083201399642F0D102AAD27A02ABBB
:10055000944602AAD479927BDB7B924602AA977AD0
:10056000927902A90192497B894602A94E7A49797A
:100570008B4602A9097B884602A90D7A614659403B
:100580006140C800514679405140424689000143CC
:1005900002A800796A40424011434A4658467240D8
:1005A000424052000A4302A802A9C9788078C900D3
:1005B0008000084302A9097852B2084302A9497889
:1005C0004900014349B28A4200D08EE7980253465F
:1005D0005B0218435B4618434B461B0218434346D5
:1005E000DB011843634600229B0118437F01384317
:1005F0003601019B3043ED00A400284320435C00FA
:100600002043044B80B21880044B1A806FE7C04629
:10061000A804002068040020000500200800002035
:100620000022054B1A70054B0132FF321A80044B31
:10063000803A1A807047C0467A0400206E04002079
:100640006C04002070B55F4B002840D11C78002C52
:1006500065D11870002922D1587800284ED15970E0
:10066000002A05D19978002900D09AE09A7070BDCF
:10067000012A64D0022AF9D199780229F6D0902172
:10068000C9050868504C044080204003204308609E
:100690008020C000886220204C498862E6E701295A
:1006A0006ED00229DBD158780228D8D09020C0051E
:1006B0000468474D25408024E4022C4304608024D4
:1006C000A4008462F13C4148FF3C8462C7E70128F2
:1006D00046D00228BDD11C78022CBAD09024E40563
:1006E00025683C4E2E4080256D02354325608025CF
:1006F0006D00A562354CFF3DA562AAE79020C005BC
:100700000468334D25408024E4022C430460802497
:10071000A4008462F13C2D48FF3C84619FE7902453
:10072000E40525682B4E2E4080256D02354325605B
:1007300080256D00A562254CFF3DA56189E799786C
:10074000012900D192E79024E40521681E48084061
:10075000802189030143202021601C49886185E7AD
:100760001C78012C00D174E79026F6053468194DE9
:1007700025408024A4022C433460144CA06168E717
:100780005878012800D16AE79025ED052868104CBB
:100790000440802000032043102428600B4884611B
:1007A0005DE79021C9050868074C0440802040039C
:1007B000204308608020C0008862202003498861AF
:1007C00054E7C04604000020FFFFCFFF00040048AC
:1007D000FFFFF3FFFFFFFCFFF0B5DE4657464E4636
:1007E0004546E0B5A1B000F03BFE00F08DFEFFF7FE
:1007F00017FF00F0ADFE00F081FF002000F0BEFF0B
:1008000000F0C4FF00F0D0FE01F07CF801F0E8F841
:1008100001F0E8F980239024DB01032502260293EE
:100820000123E40502A92000994604950693079345
:10083000039601F0A1FB08230893DB4B08A91800DD
:10084000984600270A9509960C960D9601F094FBA0
:100850003C230EA920000E930F9510951297139725
:1008600001F08AFB822314A9200014931595169594
:100870001897199701F080FBE0231AA9DB002000EC
:100880001A931C951B961D971E971F9601F074FBDB
:100890004B461AA91B93404630331A9301F06CFB68
:1008A0002368C24A01211A4080235B02134323605C
:1008B00080235B00A3624A4643469A612368BC4A90
:1008C00000201A408023DB0213432360802342462A
:1008D0009B00A362F13BFF3B93612368B54A1A403A
:1008E00080235B03134323608023DB00A362424623
:1008F00020239361002200F0FDFA00220021002055
:1009000000F0F8FA01220021002000F0F3FAAA48D2
:1009100000F03EFEA94BAA4D9B46AA4B9846AA4B17
:100920009A46AA4B994600F02DFE040001F07CF98E
:100930005B46A74A1B88934202D85A46013313806C
:10094000FFF7C8FD5B46FA221B88070006009200ED
:10095000934200D164E1524612682E2A03D89D4A80
:10096000904200D10EE153461F600022AB5E642B23
:1009700000DDD7E02F2E00D9A2E05B461B880022C5
:1009800095490A8095490A70012B00D860E1002042
:1009900000F08CFF9023DB051A68844984481140DD
:1009A000802252020A431A608022012152009A6278
:1009B0007D4A9161196808408021C902014319608C
:1009C000802189009962F139FF399161196879486C
:1009D000084080214903014319608021C9009962C0
:1009E00020239361280001F0CFF864200222AB5E3F
:1009F00047215843FFF71EFC784B68801B78002B7B
:100A000050D00423E85E764B400000229B5EC01A63
:100A1000FA23744A9B000F2158430026965FFFF784
:100A200009FCF200961B03B29B196E4ADB101BB245
:100A30001380AB8000F0A6FD06006B4B6B49188855
:100A40000422AB5E301A80B25843FFF7F3FB4B46EB
:100A50001B6867499C464B4660441860624B1E8089
:100A6000FFF75EFB634BE8801B78012B74D000F02E
:100A700033FC43461B78002B0DD0584B1E78002EBC
:100A800009D15D4B5D4A1B8801339BB2934200D173
:100A9000F9E0594A138000F075FD001B80B27C28F4
:100AA000F9D940E70423E85E4D4B400000229A5EEE
:100AB0001218D30F9B185B10494A1BB21380A6E78C
:100AC0004F4B1B88632B06D88022331C5200964262
:100AD00000D9131C9EB2404B1B881A001432964258
:100AE00003DD48498B4200D896B23B4B1E80464BF3
:100AF0001F78012F00D1D4E00023384A1370434BF4
:100B00001B88C82B3AD9012000F0D0FE00233C4AB4
:100B100013803F4A13603D4A13803E4B187800F023
:100B20006DF95FE74246643B9900C9181278643159
:100B300039480192FFF77EFB80239B00984200DA40
:100B40001800B84200DB99E0019B86B2002BB7D1B8
:100B50000223424613700DE72D4B30481968FFF70A
:100B6000DFFA1E4B28811B78002B00D12B81280037
:100B700000F040FB00231F4A137078E7234A01333B
:100B800013802FE7002251460A6000216A5E642A22
:100B900000DCF4E643461B78002B00D0EDE642462D
:100BA00002331370E9E6C04600040048FFFFFCFF73
:100BB000FFFFF3FFFFFFCFFFFFFF00000800002053
:100BC0007C04002098040020A00400209004002051
:100BD000E7030000FF0700009A040020AC04002097
:100BE00072040020740400208C040020A08C0000FB
:100BF000102700006A040020A40400204C1D0000FF
:100C000070040020FF01000076040020780400201A
:100C1000940400207A0400209C1F030000350C007F
:100C200000262C4B00201E7000F0A8FD2A4B1B78DC
:100C3000012B3ED053461E600022AB5E642B00DCCD
:100C40009BE643461A78002A00D096E600267FE706
:100C5000204B1B78002B00D099E6012201210820AF
:100C600000F048F91D4800F093FC01220121082002
:100C700000F040F90123174A137088E6019B002B0E
:100C800000D077E664E7164B1E8001220121802008
:100C900000F030F9434601361B78F6B2B342F4D87F
:100CA000F9E67608B0B2023000F068FD0A4B1F701A
:100CB00025E742461278002A04D141460B7053467C
:100CC0001A605AE653461E6000216B5E642BBADC44
:100CD00053E6C04676040020AC040020FF8F0000DD
:100CE000A4040020F0B54646D6464F46384CC0B561
:100CF0008046258800F0D2FD364E3378834204D0FA
:100D00001CBC90469946A246F0BD334B9A465246CB
:100D1000A02312685B009A423ED9304B99461B884B
:100D2000632B35D9032000F033FC00F0B7FD337896
:100D30008342E5D100222A4B00201A8000F0B6FD44
:100D40004B461B880F2B2AD8264E274F53461A682E
:100D5000012013019B1A4246551BADB25D19534643
:100D60002D091D60214A224B12881B886B43554375
:100D70009B0AAD0AED1833603D6000F097FD4B46CD
:100D80001C4A1B889342BBD84A4601331380B7E7FD
:100D90000A2000F0FDFBC8E7104B9946CAE743461E
:100DA000104E238000F098FD2388C01A336880B26B
:100DB0009842F7D3104B187800F020F80A4F00F053
:100DC0008BFD2388C01A3B6880B29842F7D3BDE7F9
:100DD0009C040020000000209404002070040020E7
:100DE00078040020B0040020880400206C04002057
:100DF0006E040020E70300007A040020002310B5F1
:100E00003A4CE356002824D15A1C5DDB042B39DC14
:100E100001335BB20121237061564A1C39DB04297E
:100E200061DD053949B202226170A256501C37DBE0
:100E3000042A55DD053A52B22D48A270415C825C0D
:100E4000C05CFFF7FFFBA27861782078FFF7DEFA3D
:100E500010BD002B3BDD062B25DC013B5BB20121E5
:100E600023706156002925DD062936DD073949B290
:100E700002226170A256002A23DD062A2ADD073AE3
:100E800052B2D9E70121053B5BB2237061564A1C7F
:100E9000C5DA0222073149B26170A256501CC7DA86
:100EA000073252B2C8E70121073B5BB2237061569B
:100EB0000029D9DC0222053149B26170A256002A0C
:100EC000DBDC053252B2B7E707335BB2A2E705338A
:100ED0005BB2C4E7013A52B2AEE7013949B2C7E7A3
:100EE000013252B2A8E7013149B29CE70C00002060
:100EF00010000020F0B5DE4657464E464546E0B5A8
:100F000087B0019000200C000491059200F0CEFC07
:100F10009023DB051A68B149B14811408022520282
:100F20000A431A608022012152009A62AD4A9162FE
:100F3000196808408021C902014319608021890095
:100F40009962F139FF3991621968A74808408021F8
:100F50004903014319608021C900996220230020C0
:100F6000936200F00BFC002C00D133E10F230393BC
:100F70000023902402939B4BE4059946029B022B8D
:100F800000D91DE1049B002B00D0A2E0974E5CE04D
:100F90008027954A7F0313403B4323608023DB0077
:100FA000A3629B462023984692464B4642469A624D
:100FB0005F2800D991E02368894A019F1A40802365
:100FC0001B03134323604A46102339009361280012
:100FD000FFF730F980B200F0DBFA32203900401B15
:100FE000FFF728F980B223687C4A802513408022CD
:100FF00052021343236080235B00A36201224B460D
:101000009A622368764A6D0313408022D20213430A
:10101000236080239B00A362F13BFF3B9B464B4632
:101020005A469A622368704A202713402B43236054
:101030008023DB00A36298464B469F62924600F0F5
:10104000A7FA6B4B0236B34275D000F0EDFD236872
:10105000624A1340802252021343236080234A468F
:101060005B00A362FF3B936100F08CFA7F2335881D
:1010700018402368312D8BD98027594AFF0213402D
:101080003B43236080239B00A3629B46F13BFF3BD5
:10109000984692464B4642469A625F2834D8226868
:1010A0004E4B28001A4080239B02134323604A467C
:1010B0000123019F936139003238FFF7BBF880B2FA
:1010C00000F066FA64203900401BFFF7B3F880B2E5
:1010D00089E7039800F052FB58E7534622681A400C
:1010E00080239B031343236042464B469A6100F0E2
:1010F0004FFA5246236813401F435B46276042461F
:10110000A3624B469A6256E7534622681A408023F0
:101110001B031343236042464B469A6100F038FAA2
:101120005246236813401F435B4627604246A36232
:101130004B469A62B3E7029B039A0133DBB2073254
:1011400002930392062B00D019E7002000F016FB53
:101150009023DB051B68214A13408022520213436F
:101160009022D20513601300802252009A624B46EF
:10117000FF3A9A629023DB051B68194A13408022CC
:10118000D20213439022D2051360130080229200F2
:101190009A624B465A469A6290235246DB051B6878
:1011A00013401D4390234246DB051D609A624B4667
:1011B0009F6207B03CBC90469946A246AB46F0BD44
:1011C000059B002B00D1E1E64820039BC01A00F0EC
:1011D000D5FADBE61E2000F0D1FAC7E6FFFFFCFFE0
:1011E000FFFFF3FF00040048FFFFCFFF7029000856
:1011F000C82B000830B5038885B001AA13700221FE
:10120000435E1912517093700421435E1912D1701C
:1012100013710621435E1912517193710821435EC7
:1012200007201912D1711372002100231FE0DCB2D4
:101230001D0626D45B00DCB21D0627D45B00DCB2A1
:101240001D0628D45B00DCB21D0629D45B00DCB28D
:101250001D062AD45B00DCB21D062BD45B00DCB279
:101260001D062CD45B000131DBB209292DD0545C62
:1012700063405CB25B00002CD9DA4340DCB21D064F
:10128000D8D563004340DCB21D06D7D56300434088
:10129000DCB21D06D6D563004340DCB21D06D5D5B1
:1012A00063004340DCB21D06D4D563004340DCB28A
:1012B0001D06D3D563004340DCB21D06D2D56300C2
:1012C00043400131DBB20929D1D101311000537201
:1012D00000F06AFB05B030BDF0B5D6464F46464635
:1012E000C0B53F4C86B02378002B39D13D4B3E4AE8
:1012F0001B8893420CD83D4B1A78002A28D0002234
:101300003B4B1A6006B01CBC90469946A246F0BD05
:10131000E12292009342F2D0344A1178012950D050
:10132000FA2292009342EAD1324B1B691B07E6D5A1
:101330002F4A1368013313602F4A9342E2D1BFF35F
:101340004F8F2E4A2E4BDA60BFF34F8FC046FDE71A
:10135000802190224901D205916101221A70CEE7C5
:101360009026032300274025F6059A4602936946F6
:10137000023B30009846009504930197059700F0D2
:10138000FBFD80235B01994600934346019353463E
:10139000029343466946300004930397059700F093
:1013A000EBFD4B461748B36200F0F2F833691D407D
:1013B00004D1154B1A78002A0FD01D70002323701A
:1013C00094E7802090214001C905886200211170B6
:1013D000FA2292009342A7D091E742461A70EDE7B5
:1013E000160000200800002083030000B404002041
:1013F000B804002000040048E02E00000400FA05B4
:1014000000ED00E0FFFF00007A0400200D48854653
:10141000002103E00C4B5B58435004310B480C4B4C
:1014200042189A42F6D30B4A02E0002313600432BA
:10143000094B9A42F9D300F0FFFB01F031F9FFF7B5
:10144000CBF9FEE700200020F82B00080000002068
:101450004C0400204C0400209C060020FEE7000005
:1014600010B500F0E9FB01211D4A13688B430B43C3
:1014700013601C4A13680B4313600131136819424F
:10148000FCD0536818491940A0239B030B430F213C
:101490005360D36A8B43D362802311685B040B4390
:1014A000802113600F4A890413680B42FCD0F0219D
:1014B00053688B4353605368ED398B4301390B43B9
:1014C0005360084A0A3153680B40082BFBD153681C
:1014D000064907480B40536001F0DCF810BDC046D8
:1014E0000020024000100240FFFFC2FFFFF8FFFF94
:1014F000006CDC027047C046FEE7C0467047C0463D
:101500007047C0467047C0460D4B0E48596984B0BD
:10151000014359615A6902400392039A0A48D96902
:101520000143D961DA69094902400292029A9A6933
:101530000A439A619B690B400193019B04B0704779
:10154000001002400100060013000200014A0600DC
:101550002F2310B586B001A90B80084B084C8B6077
:1015600000232000CB600B744B6000F025FE0122AD
:1015700023681343236006B010BDC046FFFF000080
:1015800000100040014B586A80B2704700100040C4
:10159000044A516A89B2536A5B1A9BB28342FAD3F6
:1015A0007047C046001000400123F0B5802495B07C
:1015B00005A95B4200258B6000230126E40520007D
:1015C0000D80CD600B744D6000F0F6FD2368234F55
:1015D000334323600A23019380235B020293042395
:1015E00001AA102120000493039500F04DFF032170
:1015F000380000F02FFC1A4B80220A93194B0F92EF
:101600000B9320238132FF32109280220D9312938C
:10161000C023120111929B010AAA032138001393DF
:101620000C950E9500F080FCC2200F4B80001A58DC
:101630000E491140802212040A431A5080220220CF
:10164000D2001A600A4B196801431960E1680A4325
:10165000E2601A6832431A6015B0F0BD0000024023
:1016600038000040F805002000E100E0FFFF00FF27
:101670003000024080211B4A8900136870B50B427C
:101680001FD0194C5160A3682568E06F5B1B26686A
:101690001D01EB18801B834214D9802221001348BE
:1016A00001F022F8E26DA06DA3682168121A5B1A9E
:1016B0005B089A4202D901220D4B1A7001220D4B90
:1016C0001A6070BD01250C480468AC4304602024F6
:1016D00043681B0C1B0423434360516003682B4386
:1016E0000360EEE700000240F8050020000500203E
:1016F0006A040020A804002030000240802370B556
:101700008EB001A9DB0000258B6000231A4C012656
:1017100020000D80CD600B744D6000F04DFD602306
:1017200006AA0121200006930796089609950A95B6
:101730000C950B950D9500F099FD06AA102120003F
:1017400000F094FD802106AA4900200000F08EFDE3
:10175000802106AA4901200000F088FDFF22636C69
:10176000934363642368334323608023626C1B02CA
:10177000134363640EB070BD002C0140024B5863EC
:101780009863D86318647047002C0140042370B537
:1017900090B00A932C330C93C023002480260AA90E
:1017A000DB001A480E930B940D940F9400F012FB7B
:1017B000174A7602136805A9334313600523154DB4
:1017C0000B80154B28008B60CC600C744C6000F0D3
:1017D000F3FC01222B68012113432B600A2301AA89
:1017E0002800019302960394049400F04DFE022217
:1017F000EB68FF201343C4220849EB6092008B582A
:101800008343BF3803438B5010B070BD1E000140AE
:101810001C00014000040040FFFF000000E100E068
:1018200000280FD0012816D0022807D10E490F4AF0
:101830000B681A40A023DB0313430B600C4A0D4BCB
:101840001A6170470849094A0B681A408023DB0374
:1018500013430B60F2E70449044A0B681A40C023A3
:10186000DB0313430B60E9E71C000140FFFF8FFF20
:10187000FDFF0000000400400A21064A136A8B4362
:10188000002801D008390B431362034A014B1A6147
:101890007047C04600040040FDFF00000120024BDD
:1018A0001B689B0F984370471C000140012805D01E
:1018B00080218023054A4902D1507047044A054BD4
:1018C0001A61024B03321A60F7E7C04600E100E0FC
:1018D000FDFF000000040040014B586A80B27047D1
:1018E00000040040054B10B51A69920705D5044A5B
:1018F0001A61586B80B2FFF7F5F910BD0004004083
:10190000FDFF000010B5164C88B0200000F038FE36
:101910000822A36801A91343A360E1235B0201939A
:10192000002304322000029303930493059206934C
:10193000079300F051FE0122C720FF212368800099
:101940001343084A236013588B437F390B431350CA
:1019500080235B05136023680B43236008B010BD30
:101960000044004000E100E080220B4B10B5D96933
:101970000A4206D009480178002903D11968914329
:10198000196010BD064A074C1278521AA25C013940
:101990001A850170F5E7C04600440040FD040020B0
:1019A000FC040020BC040020094B10B51970094B41
:1019B0001970002906D00139CAB201320100064867
:1019C00000F092FE8021054A13680B43136010BD9E
:1019D000FC040020FD040020BC0400200044004062
:1019E000F0B5C64680245C4A00B513685B496400C4
:1019F0000B402343043194B01360FF31584800F08A
:101A000029FA584B00250A93574B80260B93202325
:101A10000D938023DB0011933C23129380230AAAA9
:101A20009B0102214E489846109413930C950E95F5
:101A30000F9600F079FA01214C4A4D4F13684D4C36
:101A40000B431360380000F027F9200000F034F950
:101A5000802301A8DB05019302950395049500F00E
:101A600099F93B68444A05A91A4080231B04134393
:101A70003B604346079303230893802320005B01C8
:101A800009930595069500F08DF90422E36802217B
:101A90009343E36063690332934380220B436361A2
:101AA000A36A52021A43A262A26A34483243A26273
:101AB000A36A334A0B43A362A3681A4080231B0620
:101AC0001343304AA360516A89B2536A5B1A9BB2CE
:101AD0008342FAD9274A9368002BFCDB294A27481E
:101AE000516A89B2536A5B1A9BB28342FAD90121C7
:101AF000204B22481960526A224992B24B6A9B1AC3
:101B00009BB28342FAD91B4A1D48936803400120C7
:101B1000034393604A6A1B48184992B2436A9B1A6E
:101B20009BB28B42FAD9012212498B681A42FCD02F
:101B3000144A1248516A89B2536A5B1A9BB28342B3
:101B4000FAD90C4A0E4993680B4004210B43936069
:101B500014B004BC9046F0BD00000140FFFEFFFF42
:101B60000000024040240140800500201C0002408B
:101B70000827014000240140FFFF3FFE87130000BB
:101B8000E8FFFF7F0010004070B50500E120114C18
:101B9000114A23880001584310491688FEF7C0FAFD
:101BA000831B9800C0180E4B00011988891BFEF793
:101BB00041FB1E302880A38800206B8001235A003F
:101BC000A25A033380183D2BF9D13C21FEF7A8FA25
:101BD000A88070BD80050020B8F7FF1FE40C00004E
:101BE000C2F7FF1F0B4A0C4B012113600B4B136014
:101BF00000235360D3681942FCD10221084B936043
:101C0000044AD3681942FCD1034B1360054B13609F
:101C10007047C04600300040CCCC00005555000055
:101C2000DC050000AAAA0000014A024B1A607047B6
:101C3000AAAA0000003000400121114B11481A6887
:101C40000A431A605A6802405A601A680E480240F5
:101C50001A601A680D4802401A605A680C4802401F
:101C60000F205A60DA6A8243DA621A6B094802402E
:101C70001A635A6B8A435A6300229A607047C046BF
:101C8000001002400CB8FFF8FFFFF6FEFFFFFBFF5D
:101C9000FFFFC0FFACFEFFFF8022054B9200D9681A
:101CA00001200A43DA60DA6802490A40DA607047C4
:101CB00000100240FFFDFFFF002310B582B001932A
:101CC000836802000120DB072BD5D3682C490B4029
:101CD000D36093685B0747D480231B0201930120E4
:101CE000102406E0019B591E0191591E8B415B4255
:101CF000184093681C42F5D19368224902240B4096
:101D000002210B43936080231B02019306E0019B99
:101D1000591E0191591E8B415B42184093681C4229
:101D2000F5D117219368194228D19F245168A14306
:101D300051601368144923431360D3680B40072193
:101D4000D36013699B009B08136153698B435361F4
:101D5000136A0E4919400E4B0B431362936ADB0C56
:101D6000DB04936202B010BD102193681942B3D115
:101D70009368044803400B439360ADE70020F1E70C
:101D80003FF2FFFFE8FFFF7F00023E8300F000F01C
:101D90000000FF0F8023DB050360002343608360A6
:101DA000C36070478368020010B50020DB070ED4C3
:101DB0004C680B68D06823438C682343CC6809695E
:101DC00023430B430249014001200B43D36010BD64
:101DD0003CC2FEFF1B4B30B5C2188023D2001B0251
:101DE0009340194C25681D40AB4215D0A04215D038
:101DF0004D680B6820682B438D682B43CD682B43BF
:101E00000D6949692B430B43104993409140884326
:101E100003430120236030BD0020FCE74D680B68C0
:101E200004682B438D682B43CD682B430D694969AA
:101E30002B430B430649934091408C43234303605B
:101E40000120E8E7E4FFFEBF1C0001407C3F0000EA
:101E50007E3F00002E4B10B598421AD001242D4B26
:101E60001A68A2431A6000221A605A609A60DA6007
:101E700001292ED002291FD003293ED0042941D0A8
:101E80000023052903D180235B024360012318004E
:101E900010BD012914D002291ED0032929D00429FC
:101EA00029D001241B4B1A68A2431A6000221A6031
:101EB0005A609A60DA60E3E7102343600F3BE6E77D
:101EC000154B1A688A431A6000221A605A609A6099
:101ED000DA6001234360DAE7104B01241A68A24359
:101EE0001A6000221A605A609A60DA600229C3D12F
:101EF000E2E70B4BF1E70B4BEFE780235B0043601E
:101F0000FF3BC4E780235B0143600123BFE7C0467A
:101F10000000024058000240080002401C0002403D
:101F20003000024044000240114B10B559180139ED
:101F30000B78D468C018936801682343146923435D
:101F40005469234394692343D4692343546A234344
:101F5000084C21400B4303605368C3601368126A46
:101F6000836043681B0C1B0413434360012010BDB6
:101F7000E02B00080F80FFFFF0B5DE464E465746C7
:101F80004546E0B50E688B46002E00D173E04B68E5
:101F900000229C4601235B42634498460AE059466E
:101FA0000969C3684D431C402C43C46033000132AF
:101FB000D34042D0012393403340F7D01D00046842
:101FC0005D43A1466C0064194F46E4432740B9467F
:101FD00067466F43BA464F4651460F434146076036
:101FE0000129DCD881688A4659468968694389464F
:101FF000514621408A464946574639438160C16867
:102000008A46594609696943894651460C40494602
:102010000C436146C4600229C8D1FF2B1ED8594623
:102020006D4349692C01641B4D43036A0132A3438C
:102030001D4333000562D340BCD14346012B06D873
:102040005A464368D268B34356431E434660012054
:102050003CBC90469946A246AB46F0BD59461B0A89
:102060005B435B4349691D01ED1A4B43446AAC4332
:10207000234343629AE74B68013B9846DDE7C0463D
:102080000C23164A70B5516805000B40082B10D17F
:102090005368DB031FD412480F24104BD96A5E68C3
:1020A00021400131FEF73CF8B60C34400234604365
:1020B00000E00C48094A286053680B491B061B0FB7
:1020C000CB5CD84068605368084A5B055B0FD35C03
:1020D000D840A86070BD0348DEE7C046001002404B
:1020E00000093D0000127A00C82B0008D82B000818
:1020F000030070B50020002B34D12A4A0333116B42
:102100000B40022B2FD0032B42D05168012B15D04E
:102110000C230B40082B2CD15368DB033FD52248FE
:102120000F24204BD96A5D6821400131FDF7F8FF8B
:102130000300AD0C2C40A01C58431BE00B330B409C
:10214000082B28D15368DB0327D418480F24154BDC
:10215000D96A5D6821400131FDF7E2FFAD0C2C40EA
:102160000234604370BD106A1840431E9841C0039A
:10217000F8E70D480B4B0E495A685B681206120FC0
:102180008A5C5B05D0400B4A5B0FD35CD840E9E723
:1021900013689B07E6D50448E4E70348D6E70348FD
:1021A000BEE7C0460010024000127A0000093D0060
:1021B000C82B0008D82B0008254A036890421DD080
:1021C0008022D205904229D0224A904226D0224A2B
:1021D000904237D0214A904214D0214A904211D0E7
:1021E000204A90420ED003608B68C3620B888362E2
:1021F00001224369134343610120704770229343D6
:102200004A681343184A1340CA68134303608B6833
:10221000C3620B8883620B7C0363E9E770229343FC
:102220004A681343104A1340CA68134303608B681B
:10223000C3620B8883620A4B9842ECD0094B9842E8
:10224000E9D0D5E7084A1340CA681343CBE7C04634
:10225000002C0140000400400020004000400140EC
:102260000044014000480140FFFCFFFF70B5102909
:1022700000D183E05AD980235B0099422FD080237C
:102280005B01994278D1016A734E744C314001620E
:10229000036A4568C1692140146824020C437049EF
:1022A000194013691B030B435168334009030B4367
:1022B0006C49884200D19EE06B49884200D19AE087
:1022C0006A49884200D196E06949884200D192E08B
:1022D000D2684560C4610264036201204DE073244A
:1022E000016A644E31400162036A4168C569A543D1
:1022F00014682543604C1C4013691B022343546837
:10230000334024022343574CA0425FD0564CA04296
:102310005CD0564CA04259D0554CA04256D0D26801
:102320004160C561C2630362012026E0012923D117
:102330007326036A8B430362036A45688469B44366
:10234000166834430226B343166933438B435168FE
:102350000B43444988426AD04349884267D0434985
:10236000884264D04249884261D0D2684560846125
:1023700042630362012000E0002070BD036A374D14
:102380008B430362036A466884692C4015682D02FA
:102390002C432025AB431D0013691B012B438B43AA
:1023A00051680D012F492B4388422AD02E4988427B
:1023B00027D02E49884224D02D49884221D0D26886
:1023C00046608461826303620120D6E72B4E2C4C69
:1023D0001E4053699B0233431F4E234094680E40B6
:1023E0009169A402234309011D4C31432140D46962
:1023F0006601314393E723490D40916989010D43FB
:1024000066E780218B431D00536940399B012B43B4
:102410008B4391688D011A492B430E409169174DEA
:10242000890031432940D569EE000E43C7E70821F2
:102430008B43190053699B000B4304218B43916824
:1024400089000B430B490D4091690D430A490D402A
:10245000D16949000D4388E7FFEFFFFFFF8CFFFFC5
:10246000FFDFFFFF002C014000400140004401401D
:1024700000480140FFFEFFFFFFFDFFFFFFF7FFFFEA
:10248000FFFBFFFFFFBFFFFF30B5102955D039D943
:1024900080235B0099421CD080235B0199424AD182
:1024A000036A324CD568234003625368C4692B43E6
:1024B000956812682B432E4D1B0A2C402343C361A1
:1024C0001203036A11432B4A13401943016201208E
:1024D00030BD036A284CD568234003625368C46941
:1024E0002B4395682B43FF251B0CAC432343C3614F
:1024F0001368046A1B021943204B234019430162ED
:102500000120E5E7012916D1036AD5688B430362F0
:10251000536884692B4395682B43FF251B0CAC4300
:10252000234383611368046A19430A239C432143AC
:1025300001620120CCE70020CAE7036AD5688B431B
:102540000362536884692B4395682B43084D1B0A2B
:102550002C40234383611368046A1B011943A023A1
:102560009C43214301620120B2E7C046FFEFFFFF19
:10257000FF00FFFFFF5FFFFFFFFEFFFFFFF5FFFF15
:10258000104A0300904210D00F4A0020934200D01E
:10259000704780220D4B9202196901300A431A617B
:1025A0001A690B490A401A61F2E78022074BD201EF
:1025B000D96801200A43DA60DA6806490A40DA601D
:1025C000E6E7C046003801400044004000100240E9
:1025D000FFFFFDFFFFBFFFFF30B5036885B00400BC
:1025E0000D00DB071DD44B68C96802680B432969DD
:1025F0000B43A9690B4321490A4013430360436815
:102600001F4A1340AA681343436083681D4A13405E
:102610006A69134383601C4B984229D01B4B984234
:1026200002D0002005B030BD01A8FFF729FD039BB3
:10263000002BF6D029680029F3D08022A869120265
:10264000904209D04808C018FDF76AFD0004000C4C
:10265000E060E3680120E5E758004B08C018FDF78B
:102660005FFD0B4B03400007400F1843E060F0E7AD
:102670000020FFF73DFD0300DAE7C046F369FFFFE6
:10268000FFCFFFFFFFFCFFFF003801400044004088
:10269000F0FF0000014B18607047C0461800002092
:1026A00070B50D4E0D4D0024AD1BAD1005D0A3002F
:1026B000F35801349847A542F9D100F04DF9084E7E
:1026C000084D0024AD1BAD1005D0A300F358013414
:1026D0009847A542F9D170BDEC2B0008EC2B0008FF
:1026E000EC2B0008F42B0008F0B505000F2A2FD9B9
:1026F0000B0003439B0734D116000C000300103E6F
:10270000350901352D01451927681F6067685F602D
:10271000A7689F60E7681034DF6010339D42F3D1F3
:102720000F239E431036851989191340032B1AD99C
:102730001E1F0023B4080134A400CF58EF50043307
:10274000A342FAD10324A643331D2240C918ED1831
:10275000002A05D00023CC5CEC5401339342FAD11B
:10276000F0BD0500F6E71A00F2E7C046F0B58307B2
:1027700043D0541E002A3FD0CEB20200032502E00F
:102780001A00013C38D3531C16702B42F8D1032C8D
:102790002AD9FF220A40150215432A0415430F2C9B
:1027A00014D927001A00103F3E09013636019E1940
:1027B000156055609560D56010329642F8D10F22B1
:1027C00097431037DB191440032C0DD91A00271F2B
:1027D000BE080136B6009E1920C2B242FCD10322C7
:1027E00097430437DB191440002C05D0C9B21C19DB
:1027F000197001339C42FBD1F0BD14000300C6E701
:10280000034B10B5002B02D0024800F005F810BDB4
:10281000000000002928000810B501000023002254
:10282000002000F01FF810BD70B5094B094CE41AE8
:10283000A41009D0084AA518AD00ED182B68013C7A
:102840009847043D002CF9D100F08CF870BDC046CB
:10285000F42B0008F82B0008FFFFFF3F7047C0462D
:102860007047C046F0B54E464546DE465746E0B591
:10287000364D83B00600286898460F009146FFF752
:10288000EDFF334B1C68A4235B00E058002852D0B6
:1028900043681F2B13DC5A1C0192002E28D1019A89
:1028A00002339B0042601F502868FFF7D9FF0020C9
:1028B00003B03CBC90469946A246AB46F0BD254BC2
:1028C000002B3DD0C820400000E000BF002837D0DA
:1028D000A42200235200A15843600160A05040325E
:1028E000835004328350013301930023002ED6D04D
:1028F0009A00924682444A46882154466250C42235
:102900005200914681444A468739994012688B4665
:102910000A4394464A466146116084224146520069
:10292000A150022EBBD102005C468D32FF321168ED
:102930000C431460B3E720004D30FF30E050A7E7B0
:102940002868FFF78DFF01204042B1E748040020CE
:10295000E82B000800000000F8B5C046F8BC08BC31
:102960009E467047F8B5C046F8BC08BC9E46704706
:102970000500050004000400040003000300030038
:10298000020002000200010001000100010001003C
:102990000000000000000000000000000000000037
:1029A0000000000000000000000001000100010024
:1029B0000100010002000200020002000300030007
:1029C00003000400040005000500060006000700DF
:1029D000070008000800090009000A000B000B00AE
:1029E0000C000D000D000E000F0010001000110073
:1029F000120013001400150015001600170018002F
:102A000019001A001B001C001D001E001F002000E2
:102A10002100220022002400250026002700280093
:102A200029002A002B002C002D002E002F00300042
:102A300031003200330033003400350036003700F7
:102A4000380039003A003B003C003D003E003F00AA
:102A50004000420042004300440045004600470059
:102A6000480049004A004B004C004D004E004F000A
:102A70004F005000510052005300540054005500C4
:102A80005600570057005800590059005A005B0083
:102A90005B005C005C005D005D005E005E005F004E
:102AA0005F00600060006100610061006200620020
:102AB00062006200630063006300630063006400FF
:102AC00064006400640064006400640064006400E6
:102AD00064006400640064006300630063006300DA
:102AE00063006200620062006100610061006000DA
:102AF000600060005F005F005E005E005D005D00E2
:102B00005C005B005B005A005A00590058005800F6
:102B10005700560055005500540053005200520013
:102B2000510050004F004E004D004C004C004B0037
:102B30004A00490048004700460045004400430061
:102B40004200410040003F003E003D003C003B0091
:102B50003A003900380037003600350034003300C1
:102B6000310030002F002E002D002C002B002A00F9
:102B70002900280027002600250024002300220029
:102B8000210020001F001E001D001C001B001A0059
:102B90001900180018001700160015001400130083
:102BA00012001200110010000F000F000E000D00A7
:102BB0000C000C000B000A000A00090009000800C4
:102BC00007000700060006000000000000000000EB
:102BD00001020304060708090000000001020304C3
:0C2BE000081C30445800000020000020B9
:082BEC0001280008E9000008BF
:042BF400C100000814
:102BF800010100000A0A0A00FA00000000020400AD
:102C0800000002010102010000127A000000000029
:102C1800000000000C03002074030020DC030020E7
:102C2800000000000000000000000000000000009C
:102C3800000000000000000000000000000000008C
:102C4800000000000000000000000000000000007C
:102C5800000000000000000000000000000000006C
:102C6800000000000000000000000000000000005C
:102C7800000000000000000000000000000000004C
:102C8800000000000000000000000000000000003C
:102C9800000000000000000000000000000000002C
:102CA800000000000000000000000000000000001C
:102CB800000000000000000001000000000000000B
:102CC8000E33CDAB34126DE6ECDE05000B000000D0
:102CD80000000000000000000000000000000000EC
:102CE80000000000000000000000000000000000DC
:102CF80000000000000000000000000000000000CC
:102D080000000000000000000000000000000000BB
:0C303800000000000000000078060020EE
:040000050800140DCE
:00000001FF
